:020000040800F2
:10000000B00A002045010008E71600084316000862
:10001000E5160008D50100087D1D0008000000005D
:10002000000000000000000000000000ED160008C5
:100030004503000800000000EB1600083D1800080A
:100040005F0100085F0100085F0100085F01000810
:100050005F0100085F0100085F0100085F01000800
:100060005F0100085F0100085F0100085F010008F0
:100070005F0100085F010008D9010008E5010008E0
:100080005F0100085F0100085F0100085F010008D0
:100090005F0100085F0100085F0100085F010008C0
:1000A0005F0100085F0100085F0100085F010008B0
:1000B0005F0100085F0100085F0100085F010008A0
:1000C0005F0100085F0100085F0100085F01000890
:1000D0005F010008711D00085F0100085F01000852
:1000E0005F0100085F0100085F0100085F01000870
:1000F0005F0100085F0100085F0100085F01000860
:100100005F0100085F0100085F0100085F0100084F
:100110005F0100085F0100085F0100085F0100083F
:100120005F0100085F0100085F0100085F0100082F
:10013000DFF80CD000F03CF800480047151E00081E
:10014000B00A00200648804706480047FEE7FEE761
:10015000FEE7FEE7FEE7FEE7FEE7FEE7FEE7FEE777
:100160009D1800083101000840EA01039B0703D0F5
:1001700009E008C9121F08C0042AFAD203E011F8E6
:10018000013B00F8013B521EF9D27047D2B201E0A8
:1001900000F8012B491EFBD270470022F6E710B58C
:1001A00013460A4604461946FFF7F0FF204610BDE5
:1001B000064C074D06E0E06840F0010394E80700B4
:1001C00098471034AC42F6D3FFF7B6FF5C1F000827
:1001D0007C1F0008FEE70000014800F071B9000034
:1001E00068010020014800F06BB90000AC0100205C
:1001F00030B590F840500124AC40C56B6C60046889
:1002000063604368102B036803D099600068C26084
:1002100030BD9A600068C16030BD00002DE9F84330
:10022000DFF8CC9099F8010001283BD1252000F09F
:1002300049FC304F4FF0010807F122062E4C0025F3
:1002400026E069462D4801F00AFE206880280BD27E
:100250009DF800103154401C206019D0311811F85D
:10026000012CEE2A02D003E0256011E087F802801D
:1002700004280DD3FF2A0BD111F8020CFF2807D157
:1002800011F8030CFC2803D111F8040CFF280BD043
:100290001A4801F0D4FD0028D3D0252000F023FC1B
:1002A00089F80150BDE8F88336F8030F40BA388169
:1002B000708840BA78813079387387F80080266872
:1002C000083E102E0CD80B4810210D300746FFF7C2
:1002D00064FF084932462A313846FFF745FF02E0FD
:1002E00007A001F04DFD00F01DF82560D5E70000E6
:1002F000100000200806002018010020F003002054
:1003000070726F746F636F6C5F616E616C7973692B
:10031000733A20646174612073697A652065727232
:100320006F72210006480178012907D1017B10294D
:1003300004D1427B4189008901F0D6B970470000A1
:1003400008060020704772B6FEE710B590F821103D
:100350000022022905D00421816380F82020012099
:1003600010BD01680B6823F00E030B6001680B6879
:1003700023F001030B6090F84030012404FA03F1EC
:10038000C36B596080F8214080F82020104610BDD2
:100390002DE9F05F90F821100024022903D00421F8
:1003A0008163012485E001680A6822F00E020A6078
:1003B00001680A6822F001020A603F4E3E4FB21502
:1003C000DFF8F4C0DFF8F090DFF8ECA0DFF8E8B079
:1003D000DFF8E4E00168783F13011502ACF1640C2A
:1003E000A9F15009AAF13C0AABF1280BAEF1140EA9
:1003F0004FF48018B14227D9B9420ED0614512D0CE
:1004000049451DD0514518D0594518D0714501D1E5
:10041000424615E0294EB14201D1012210E0274E9B
:100420001436B14201D110220AE0244E2836B142DE
:1004300006D0224A3C32914201D11A4600E02A46B7
:100440001E49091F0A602BE0B94213D0614517D03D
:10045000494522D051451DD059451DD0714501D186
:1004600042461AE0B14202D14FF0807215E0134EBD
:10047000B14201D1012210E0104E1436B14201D137
:1004800010220AE00D4E2836B14206D00B4A3C320B
:10049000914201D11A4600E02A46074980394A6054
:1004A000012180F82110002180F82010416B01B15A
:1004B00088472046BDE8F09F8000024008040240C3
:1004C0002DE9F05FC16B0B6801680A68046C4FF09E
:1004D000040808FA04F8844D844E854FDFF814C2EE
:1004E000DFF81492DFF814A2DFF814B2DFF814E298
:1004F00018EA030F65D05FEA427862D50A6892066F
:1005000003D40A6822F004020A60DFF8F0814FF495
:100510008062016808F1140813011402414524D9CE
:10052000A9420DD0B1420FD0B9421AD0614515D0C1
:10053000494515D0514501D1120312E0594501D169
:1005400004220EE0714501D140220AE06D4D1435C0
:10055000A94206D06B4A2832914201D11A4600E0E6
:1005600022466749091F0A6029E0A94213D0B14217
:1005700015D0B94220D061451BD049451BD051450B
:1005800002D14FF4800217E0414502D14FF0806262
:1005900012E0594501D104220EE0714501D14022FB
:1005A0000AE0584D1435A94206D0564A28329142E5
:1005B00001D11A4600E022464B4908394A60C16A17
:1005C00071E04FF0020808FA04F818EA030F70D03F
:1005D0005FEA82786DD50A68920606D40A6822F02E
:1005E0000A020A60012180F82110DFF810814FF41F
:1005F0000072016808F1140813011402414524D95E
:10060000A9420DD0B1420FD0B9421AD0614515D0E0
:10061000494515D0514501D1120312E0594501D188
:1006200002220EE0714501D120220AE0354D143539
:10063000A94206D0334A2832914201D11A4600E03D
:1006400022462F49091F0A6029E0A94213D0B1426E
:1006500015D0B94220D061451BD049451BD051452A
:1006600002D14FF4001217E0414502D14FF0007261
:1006700012E0594501D102220EE0714501D120223C
:100680000AE0204D1435A94206D01E4A2832914274
:1006900001D11A4600E02246134908394A60002178
:1006A00080F82010816A00291CD0BDE8F05F08475F
:1006B000FFE70825A5401D4214D0120712D50A688D
:1006C00022F00E020A6090F84020C36B012101FA6B
:1006D00002F25A60816380F82110002180F8201016
:1006E000016BE0E7BDE8F09F080002401C000240FB
:1006F0003000024044000240580002406C000240BA
:10070000080402401C04024030B560B11A4B016875
:100710001422994209D2194B0B44B3FBF2F2920016
:100720000264174A0AE0012030BD134B5B420B44C0
:10073000B3FBF2F2920002640F4A083AC26302224B
:1007400080F821200A6843F6F0739A43F0E90134F7
:100750002343D0E902452C432343046923434469DE
:1007600023438469234313430B6000214163012227
:1007700042770177084630BD08040240F8FFFDBF0C
:100780000000024070B5044690F8200000250128C2
:100790000CD0012084F8200094F821600020012E64
:1007A00006D084F820000225284670BD022070BDC6
:1007B000022684F82160A0632068066826F00106FE
:1007C00006602046FFF714FDE06A002820680168F3
:1007D00002D041F00E0106E021F004010160206822
:1007E000016841F00A0101602068016841F00101DF
:1007F0000160D9E770B5044600F006F90546601CB3
:1008000002D004480078044400F0FEF8401BA042E7
:10081000FAD370BD000000202DE9F84FDFF8C09139
:100820000024A9F1040B23464FF00F0809F1040A34
:10083000ABF1040ECCE00127A7403A40BA4272D196
:10084000DFF8A0C14D68A5EB0C0665452BD00DDC8B
:10085000032D34D005DC35B3012D19D0022D2FD155
:100860001BE0112D16D0122D2AD119E0B6F5881FE4
:1008700019D006DCB6F5803F15D0B6F5801F1FD124
:1008800011E0B6F5001F0ED0B6F5041F18D10AE02E
:10089000CB6815E0CB681B1D12E0CB6808330FE076
:1008A000CB680C330CE08B682BB1012B4FF00803A5
:1008B00003D0476104E0042302E0076100E0002365
:1008C000FF2A01D8064601E000F104064FEA84053C
:1008D00001D9A5F12005376808FA05FC27EA0C07BD
:1008E00003FA05F547EA050737604D68ED006ED558
:1008F0003D4DAE6946F00106AE61AD6924F00306D8
:1009000005F001050095394D7719BE68A5072D0F33
:1009100008FA05FC26EA0C06DFF8D4C0604503D1CE
:100920004FF0000C25E052E0DFF8C8C0604502D16E
:100930004FF0010C1DE0DFF8C0C0604502D14FF060
:10094000020C16E0DFF8B4C0604502D14FF0030C92
:100950000FE0DFF8ACC0604502D14FF0040C08E0B6
:10096000DFF8A0C0604502D14FF0050C01E04FF068
:10097000060C0CFA05FC4CEA060CC7F808C04D68DA
:10098000D9F80060ED024D4601D5164300E09643CC
:100990002E604D68DAF80060AD02554601D5164369
:1009A00000E096432E604D68DBF80060AD035D46C5
:1009B00001D5164300E096432E604D68DEF80060D6
:1009C000ED03754601D5164300E096432E60641C86
:1009D0000A6832FA04F57FF42EAFBDE8F88F000004
:1009E0000804014000001110001002400000014006
:1009F00000080140000C01400010014000140140BB
:100A000000180140001C0140014880687047000048
:100A1000000000200248816802781144816070471C
:100A200000000020074810B5016841F01001016086
:100A3000032000F085F80F2000F006F800F024F8FD
:100A4000002010BD0020024070B50D4D04464FF44B
:100A50007A712878B1FBF0F00A490968B1FBF0F02F
:100A600000F0EEFA48B9102C07D200222146501EA1
:100A700000F046F800206C6070BD012070BD0000E1
:100A8000000000200C0000200C4808B5816941F0EE
:100A900001018161816901F001010091C16941F0A9
:100AA0008051C161C069064900F0805000904868DB
:100AB00020F0E06040F00070486008BD0010024087
:100AC0000000014000280DDB00F01F0201219140D1
:100AD0004009800000F1E020C0F88011BFF34F8F83
:100AE000BFF36F8F7047002809DB00F01F02012160
:100AF00091404009800000F1E020C0F800117047EB
:100B0000F0B40E4B1B68C3F30223C3F10704042C9B
:100B100000D904241D1D072D01D2002300E0DB1E97
:100B2000012606FA04F56D1E0D409D409E40761E7E
:100B3000164045EA0601F0BC01F02AB90CED00E0D0
:100B4000064A00F0070110684FF6FF03184040EA1C
:100B50000120034908431060704700000CED00E0DD
:100B60000000FA052DE9F0470D46040067D0DFF8D4
:100B70001881D8F8000000F00700A8420CD2D8F87D
:100B8000001021F007012943C8F80010D8F8000030
:100B900000F00700A84252D120683C4E810712D5D0
:100BA000400703D5706840F4E0607060207800076B
:100BB00003D5706840F4605070607068A16820F0E0
:100BC000F000084370602078C00727D060680128D3
:100BD00010D03168022810D0890700292FDA7168F7
:100BE00021F0030101437160FFF70EFF074641F258
:100BF00088390CE031688903EFE78901EDE7FFF7F9
:100C000003FFC11B494502D90320BDE8F087706886
:100C1000616800F00C00B0EB810FF0D1D8F8001043
:100C2000404601F00701A9420BD9016821F00701F4
:100C300029430160006800F00700A84201D00120AC
:100C4000E3E72078400705D57068E16820F4E060AC
:100C5000084370602078000706D57068216920F489
:100C6000605040EAC100706000F038F87168084ACE
:100C7000C1F30311515CC84006490860064800688A
:100C8000FFF7E2FE0020C0E7002002400010024013
:100C9000421F00080C000020040000200448054901
:100CA00000684968044AC1F30221515CC84070479A
:100CB0000C00002000100240521F000804480549A3
:100CC00000684968044AC1F3C221515CC8407047BA
:100CD0000C00002000100240521F00080E4B596803
:100CE0000E4801F00C02042A11D0082A0FD10C483A
:100CF000C1F38342C903805C0AD55968084AC1F32D
:100D00004041921E515C054A5043B0FBF1F07047E0
:100D100004494843704700000010024000127A0066
:100D2000321F000800093D002DE9F84F04006FD084
:100D30002078BE4DC00747D06868C0F38100012805
:100D400007D06868C0F38100022809D16868C00331
:100D500006D52868800337D560680028E7D033E0DF
:100D60006068B0F5803F0BD010B1B0F5A02F11D066
:100D7000286820F480302860286820F4802002E071
:100D8000286840F480302860606888B1FFF73CFE36
:100D9000064609E0286840F480202860F0E7FFF765
:100DA00033FE801B642873D828688003F7D50BE0D6
:100DB000FFF72AFE064604E0FFF726FE801B6428A4
:100DC000F1D828688003F7D42078DFF864828007A0
:100DD0004FF0010A4FF0000939D5686810F00C0F88
:100DE00007D06868C0F38100022809D16868C00391
:100DF00006D42868800714D52069012808D110E09E
:100E00002069B0B1C8F800A0FFF7FEFD064605E076
:100E100007E1FFF7F9FD801B0228C4D82868800786
:100E2000F7D52868616920F0F80040EAC100286021
:100E30000DE0C8F80090FFF7E7FD064604E0FFF775
:100E4000E3FD801B022823D828688007F7D4207888
:100E500000072CD57748A169D9B1C0F800A0FFF7E9
:100E6000D3FD064604E0FFF7CFFD801B02280FD814
:100E7000686A8007F7D570484FF4FA510068B0FBF4
:100E8000F1F0009000BF0098411E0091FAD20EE0F0
:100E90007CE0C0F80090FFF7B7FD064604E0FFF7DE
:100EA000B3FD801B022871D8686A8007F7D42078C8
:100EB00040075BD5E8690027C00008D4E86940F026
:100EC0008050E861E869012700F0805000905B489D
:100ED0000168C90511D40168834641F4807101603D
:100EE000FFF792FD064604E0FFF78EFD801B6428A5
:100EF0004CD8DBF80000C005F6D5E06801280AD020
:100F000008B1052813D0286A20F001002862286A59
:100F100020F0040002E0286A40F001002862E06846
:100F200041F2883B88B1FFF76FFD064609E0286A69
:100F300040F004002862EEE7FFF766FD811B59458B
:100F40005BD8286A8007F7D50BE0FFF75DFD064602
:100F500004E0FFF759FD811B59454ED8286A8007E8
:100F6000F7D41FB1E86920F08050E861E069A8B3C8
:100F70006968C1F38101022946D00228484606D09B
:100F8000C8F86000FFF740FD044639E035E0474609
:100F9000C8F86000FFF738FD064604E0FFF734FDAF
:100FA000801B022829D828688001F7D4206AB0F570
:100FB000803F05D16868A16820F40030084368606C
:100FC000D4E908010843696821F474110843686092
:100FD000C7F860A0FFF718FD044605E023E0FFF71F
:100FE00013FD001B022808D828688001F7D51AE0F5
:100FF000FFF70AFD001B022802D90320BDE8F88F85
:1010000028688001F4D40EE00128F7D06868226ACD
:1010100000F48031914204D1616A00F4701088427A
:1010200001D00120EAE70020E8E7000000100240BC
:1010300000004242800442420C0000200070004048
:1010400010B5401EB0F1807F01D3012010BD4FF0DC
:10105000E02460610F21601700F09AFE0020A0617B
:1010600007202061002010BD38B5044690F84200EA
:10107000202801D0022038BD71B16AB1012020635F
:1010800000206063204600F0F1FD0246206B01283D
:1010900004D00122104638BD012038BD2068016807
:1010A0004068009020680C3050E8001F41F01001AB
:1010B00040E80013002BF5D1ECE700002DE9F041EA
:1010C0000D46074600681349884220D1124800F0B7
:1010D000BDFE70B90024114E09E00F4800F0B6FEC5
:1010E00038B9315D0C4800F0D3FE641CA4B2AC42A8
:1010F000F3D34FF4807421460848FFF74EF8224698
:1011000006493846FFF7B0FF054901204870BDE8A1
:10111000F081000000380140F0030020F0020020C0
:101120001000002070470000F8B501680446086808
:10113000CA684B6910F00F0F4FF000055AD003F04A
:10114000010602F49077374365D0C10705D0D10579
:1011500003D5616C41F001016164410705D5D907F0
:1011600003D0616C41F002016164810705D5D907A4
:1011700003D0616C41F004016164010707D502F0FE
:101180002001314303D0616C41F008016164616C5E
:1011900000293BD0800604D5900602D5204600F0F9
:1011A00072FC20684069616CC0F3801001F0080196
:1011B000014320462BD000F031FC206840694006F6
:1011C00021D52068143050E8001F21F0400140E88C
:1011D0000012002AF5D1E06BA8B16D494163E06BC4
:1011E000FFF7D6F8002811D0E06B416B01B0BDE8E5
:1011F000F040084783060ED593060CD52046BDE87F
:10120000F84000F040BC2046FFF78CFFF8BDFFF728
:1012100089FF6564F8BD266B2023012E7CD1C606AC
:101220007AD5D60678D508684868009048694FF0A6
:101230000206400640D5E16B086840680004000CD7
:10124000E8D0A28D8242E5D9E085886920282DD09A
:1012500020680C3050E8001F21F4807140E8001233
:10126000002AF5D12068143050E8001F21F0010158
:1012700040E80012002AF5D12068143050E8001F21
:1012800021F0400140E80012002AF5D184F84230F4
:10129000256320680C3050E8001F21F0100140E861
:1012A0000012002AF5D1E06BFFF74FF86663A08DBE
:1012B000E18D401A81B22AE0A08DE18D401A81B201
:1012C000E08D0028A6D00029A4D020680C3050E87A
:1012D000002F22F4907240E80027002FF5D12068FB
:1012E000143050E8002F22F0010240E80027002FC0
:1012F000F5D184F84230256320680C3050E8002F87
:1013000022F0100240E80023002BF5D1666320464E
:10131000FFF7D4FEF8BDFFE705062BD5150629D546
:1013200094F841002128F5D1A068B0F5805F01D183
:101330002069B0B1206A411C2162216800784860B0
:10134000E08C401E0004000CE084E3D12068C168FA
:1013500021F08001C1602068C16841F04001C16096
:10136000D8E7206A0088C0F308004860206A801C23
:101370002062E5E74006CDD55006CBD5CA682046A9
:1013800022F04002CA6084F8413000F031F9C1E730
:101390009F18000870B5040004D094F8410000259F
:1013A00010B106E0012070BD84F84050204600F0E6
:1013B00023F8242084F841002068C16821F40051FA
:1013C000C160204600F0F6FB2068016921F49041DD
:1013D00001612068416921F02A0141612068C168EA
:1013E00041F40051C1606564202084F8410084F814
:1013F00042006563002070BDF0B585B0002504464D
:10140000009501950295039500682C49884253D1B7
:101410002B48816941F480418161816901F48041F7
:101420000491816941F0040181618069254E00F0D9
:10143000040004904FF400700090022001900320FB
:10144000039069463046FFF7E7F93015CDE900050E
:10145000694630460295FFF7DFF91C4E1A4880278F
:1014600001C61020A1C6194846F810597561B5612A
:10147000F561FFF749F908B1FEF765FFA6637462ED
:10148000124E114844361430C6E90005C6E9025729
:1014900035617561B5613046F561FFF735F908B121
:1014A000FEF751FFE6630022114625207462FFF724
:1014B00027FB2520FFF717FB05B0F0BD00380140E2
:1014C0000010024000080140440002406801002072
:1014D000704770472DE9F843044690F841001F46D5
:1014E00015460E46202802D00220BDE8F8838EB1B2
:1014F00085B100206064212084F84100FFF784FA60
:10150000A5848146E584A0684FF02008B0F5805F8F
:1015100002D003E00120E8E7206910B1354600263B
:101520000EE000250CE08021204600F0E9FBA0B988
:10153000BDB115F8010B21684860E08C401EE084C5
:10154000E08C4B464FF0000200970028EBD14FF0A3
:101550004001204600F0D4FB40B184F841800320D4
:10156000C3E736F8020BC0F30800E4E784F84180D3
:101570000020BAE737B5044690F84100202801D092
:1015800002203EBD019951B34AB32162A284E28494
:1015900000206064212384F84130A56B114BAB62BD
:1015A000A56B114BEB62A56B104B2B63A36B5863C0
:1015B00020681346A56B021D2846FFF7E3F8216853
:1015C0006FF0400008602068143050E8001F41F0C0
:1015D000800140E80012002AF5D100203EBD012024
:1015E0003EBD00009D190008DF190008AF18000873
:1015F00070B5064600680F49C0B0884214D1002477
:101600006D4605E029190C4800F029FC641CA4B2C1
:10161000094800F014FC08B9FF2CF3D934B1224674
:1016200069463046FFF7A6FF40B070BD0349002071
:101630000870F9E700380140FC0400201000002089
:101640007047FEE70D4808B5416941F0010141616D
:101650004069002200F00100009011460E20FFF7C3
:101660004FFA0E20FFF73FFA002211460F20FFF736
:1016700047FABDE808400F20FFF735BA00100240D6
:10168000094808B5816941F010018161816901F063
:1016900010010091816941F004018161806900F0CD
:1016A0000400009008BD0000001002400C4810B576
:1016B0000A4901604FF4E1314160002181600C2250
:1016C000C160C0E904128161C161FFF763FE0028B7
:1016D00003D0BDE81040FEF736BE10BD0038014013
:1016E00020010020FEE7FEE77047704770470000CA
:1016F000F8B515460A4601461E464BF23210069CC6
:1017000000F06CF88DF80050200A8DF801008DF87B
:101710000240064A0321684600F016FA2146304688
:1017200000F006F800F076F8F8BD00002001002077
:1017300070B50E46044607E02046641C044A0121A9
:1017400000F002FA6D1CADB2B542F5D370BD0000D9
:1017500020010020FEB514460A4601461D464BF204
:101760000710089E00F03AF80DB1012000E00020BB
:101770008DF8000006F00F0040F080008DF80100A9
:10178000200E8DF80200200C8DF80300200A8DF841
:1017900004008DF80540044A0A21684600F0D4F997
:1017A00000F038F8FEBD00002001002010B51446FE
:1017B0000A4601464BF2101000F010F805E02046F2
:1017C000641C054A012100F0BFF920780028F6D1F9
:1017D000BDE8104000F01EB8200100201CB5EE232B
:1017E0008DF80030030A8DF801308DF80200080AE8
:1017F0008DF803008DF80410100A8DF805008DF89F
:101800000620034A0721684600F09EF91CBD00002F
:101810002001002008B5FF208DF80000FC218DF884
:1018200001108DF802008DF80300034A0421684678
:1018300000F08AF908BD000020010020FFF7EAB897
:1018400030B58FB028216846FEF7A7FC14210AA8FE
:10185000FEF7A3FC0120010400248DE8130004908E
:101860004FF4E010CDE90810022507956846FFF710
:101870005BFA08B172B6FEE70F20CDE90A054FF416
:101880008060CDE90C4002210AA80E94FFF76AF9A6
:10189000002801D072B6FEE70FB030BD704710B51A
:1018A000406A0021C185C184FFF73CFC10BD70B5C2
:1018B000446A2068406994F84110C0F3C0100025C4
:1018C000212904D118B1E584204600F0CEF8206823
:1018D000406994F84210C0F38010222904D118B155
:1018E000E585204600F09AF8606C40F010006064D6
:1018F0002046FFF717FC70BD10B50146406A096825
:1019000009684FF0000389062ED4C38501680C31A5
:1019100051E8002F22F4807241E80024002CF5D118
:101920000168143151E8002F22F0010241E800243F
:10193000002CF5D10168143151E8002F22F040024B
:1019400041E80024002CF5D1202180F84210016BE1
:10195000012909D101680C3151E8002F22F0100251
:1019600041E80024002CF5D14363016B012902D02A
:10197000FFF7AEFD10BD818DFFF7A0FB10BD10B5C8
:10198000406A01214163016B012902D0FFF7A1FDEB
:1019900010BD818D4908FFF791FB10BD10B50146C0
:1019A000406A09680968890616D40021C184016863
:1019B000143151E8002F22F0800241E80023002B6F
:1019C000F5D101680C3151E8002F42F0400241E8A6
:1019D0000023002BF5D110BDFFF70AFE10BD10B596
:1019E000406AFFF72DFE10BD4FF480720149FFF7EA
:1019F0003BBB0000F002002010B50446054800F093
:101A000018FA054800F015FA2046BDE81040FFF727
:101A1000EBBF0000F0030020FC04002001680C3143
:101A200051E8002F22F4907241E80023002BF5D1F9
:101A30000168143151E8002F22F0010241E800232F
:101A4000002BF5D1016B012909D101680C3151E856
:101A5000002F22F0100241E80023002BF5D12021B5
:101A600080F8421000210163704701680C3151E891
:101A7000002F22F0C00241E80023002BF5D12021E5
:101A800080F84110704708B590F84210222901D023
:101A9000022008BD81684FF48053994201D1026948
:101AA00022B1826A99421BD049B10AE00268816A78
:101AB0005268C2F308020A80816A891C08E0016941
:101AC00071B10168496801F07F011170816A491C98
:101AD0008162C18D491E0904090CC18503D01BE038
:101AE00001684968F1E70168CA6822F02002CA600B
:101AF0000168CA6822F48072CA6001684A6922F0EB
:101B000001024A61202180F8421000214163026BEA
:101B1000012A03D0FFF7DCFC002008BD0163016847
:101B20000C3151E8002F22F0100241E80023002B75
:101B3000F5D101680A68D20602D50A6849680091A1
:101B4000818DFFF7BBFAE7E72DE9F04100249046CD
:101B50000E460746254605E0795D134800F098F9E2
:101B60006D1CADB2B542F7D3104D2878002819D1BD
:101B7000012028700E4E05E031190B4800F06FF976
:101B8000641CA4B2084800F05AF908B9FF2CF3D934
:101B900034B122464046BDE8F0410549FFF7EABCB2
:101BA00000202870BDE8F081FC0400201000002017
:101BB000F001002070B5044600680169E26821F474
:101BC000405111430161A1682069014360690143EB
:101BD0002068C26841F20C639A430A43C2602068DD
:101BE0004169A26921F44071114341611E49206895
:101BF000884202D1FFF762F801E0FFF74FF800EBEF
:101C0000C00101EB0011606864228000B1FBF0F3B9
:101C1000B3FBF2F36FF018067343B1FBF0F5B1FBC1
:101C2000F0F605EB8305322303EB0515B5FBF2F562
:101C3000B6FBF2F605F0F00505EB0615B1FBF0F684
:101C4000B1FBF0F0B0FBF2F06FF01801484306EB87
:101C5000800003EB0010B0FBF2F0216800F00F00F1
:101C60002844886070BD00000038014037B582B05C
:101C70001346039A82620446838500206064222111
:101C800084F84210E56B1B49A962E56B1A49E962C9
:101C9000E56B1A492963E16B48632168E06B091D14
:101CA000FEF770FD2068016840680090206948B127
:101CB00020680C3050E8001F41F4807140E80012A9
:101CC000002AF5D12068143050E8001F41F00101CE
:101CD00040E80012002AF5D12068143050E8001FB7
:101CE00041F0400140E80012002AF5D105B0002083
:101CF00030BD0000F91800087F190008AF1800086F
:101D00002DE9F8431F4690460D460446089E23E001
:101D1000701C21D0FEF778FEC01BB0421AD8CEB19D
:101D20002068C168490717D5802D15D0402D13D0E4
:101D30000168C94309070FD4016800254068009075
:101D40002046FFF76BFE0820606484F840500120B5
:101D5000BDE8F8830320FBE72068006835EA00004F
:101D600004D000204045D3D00020F1E70120F9E75E
:101D70000148FFF7D9B9000020010020FEE700006C
:101D8000014A024900F023B8F11D00081C0100209F
:101D90000907090E002804DB00F1E02080F8001498
:101DA000704700F00F0000F1E02080F8141D70472C
:101DB00002E008C8121F08C1002AFAD17047704714
:101DC000002001E001C1121F002AFBD170472DE95C
:101DD000F04116460F460446002503E03946B04759
:101DE000641C6D1C20780028F8D12846BDE8F081DD
:101DF00013B54FF6FF73012269460248FFF76AFBED
:101E000000981CBD200100200148FFF7F5BD00002F
:101E100020010020FEF706FEFFF712FDFFF730FC61
:101E2000FFF710FCFFF742FC00F080F800F04CF8E0
:101E3000FCE7002101604160C0F808117047D0F84C
:101E4000080108B10020704701207047D0F8080150
:101E5000B0F5807F01D0002070470120704700B5A9
:101E6000020003D011B1FFF7EAFF08B1002000BD66
:101E7000536802F10800185C08701079401CC0B269
:101E80005060D2F80801401EC2F80801012000BDD0
:101E900000B50246FFF7DAFF28B91068FF2802D81C
:101EA0005368FF2B01D9002000BD02F10803C15483
:101EB0001078401CC0B21060D2F80801401CC2F873
:101EC0000801012000BD000038B5FEF7A7F9032086
:101ED00000900023C82202210120FFF73BFC0EA244
:101EE00006210120FFF762FC022000900E4800222C
:101EF000041F2168431802210420FFF7F9FB206822
:101F0000801C2060FF2801D300202060BDE83840FD
:101F10006420FEF76FBC000048656C6C6F20576F43
:101F2000726C64210000000018000020FFF76CBFF5
:101F3000010202030405060708090A0B0C0D0E0F27
:101F4000101000000000000000000102030406075A
:101F50000809000000000102030400007C1F0008C3
:101F60000000002020010000B01D00089C20000897
:101F70002001002090090000C01D000801000000A1
:101F8000100000000000000000127A0000000000B5
:101F900000000000010101010102030406080A0D0E
:101FA0000F1316191D21262A2F34393E44494F5547
:101FB0005B61676D73797F868C92989EA4AAB0B698
:101FC000BBC1C6CBD0D5D9DEE2E6E9ECF0F2F5F73D
:101FD000F9FBFCFDFEFEFEFEFEFDFCFBF9F7F5F253
:101FE000F0ECE9E6E2DED9D5D0CBC6C1BBB6B0AAEB
:101FF000A49E98928C868079736D67615B554F497A
:10200000443E39342F2A26211D1916130F0D0A08B4
:1020100006040302010101010102030406080A0D7E
:102020000F1316191D21262A2F34393E44494F55C6
:102030005B61676D73797F868C92989EA4AAB0B617
:10204000BBC1C6CBD0D5D9DEE2E6E9ECF0F2F5F7BC
:10205000F9FBFCFDFEFEFEFEFEFDFCFBF9F7F5F2D2
:10206000F0ECE9E6E2DED9D5D0CBC6C1BBB6B0AA6A
:10207000A49E98928C868079736D67615B554F49F9
:10208000443E39342F2A26211D1916130F0D0A0834
:0C20900006040302000000000000000035
:0400000508000131BD
:00000001FF
