:020000040800F2
:10000000300E002045010008D13500084D340008AD
:10001000CD350008510700085544000800000000D5
:10002000000000000000000000000000F1360008A1
:10003000350A000800000000B13600080139000848
:100040005F0100085F0100085F0100085F01000810
:100050005F0100085F0100085F0100085F01000800
:100060005F0100085F0100085F0100085F010008F0
:100070005F0100085F0100085507000865070008D8
:100080005F0100085F0100085F0100085F010008D0
:100090005F0100085F0100085F0100085F010008C0
:1000A0005F0100085F0100085F0100085F010008B0
:1000B0005F0100085F0100088D3900085F0100083A
:1000C0005F0100085F0100085F0100085F01000890
:1000D0005F010008454400085F0100085F01000857
:1000E0005F0100085F0100085F0100085F01000870
:1000F0005F0100085F0100085F0100085F01000860
:100100005F0100085F0100085F0100085F0100084F
:100110005F0100085F0100085F0100085F0100083F
:100120005F0100085F0100085F0100085F0100082F
:10013000DFF80CD000F03CFA0048004761450008A9
:10014000300E00200648804706480047FEE7FEE7DD
:10015000FEE7FEE7FEE7FEE7FEE7FEE7FEE7FEE777
:10016000893900083101000840EA01039B0703D0E8
:1001700009E008C9121F08C0042AFAD203E011F8E6
:10018000013B00F8013B521EF9D27047D2B201E0A8
:1001900000F8012B491EFBD270470022F6E710B58C
:1001A00013460A4604461946FFF7F0FF204610BDE5
:1001B00030B50B46014600202022012409E021FA37
:1001C00002F59D4205D303FA02F5491B04FA02F534
:1001D0002844151EA2F10102F1DC30BD2DE9F05FCB
:1001E0000546002092469B468846064681464024A6
:1001F0001BE0284641464746224600F0FAF953469E
:100200005A46C01A914110D311461846224600F0B2
:10021000E1F92D1A67EB01084F4622460120002123
:1002200000F0D8F917EB00094E41201EA4F101049B
:10023000DFDC484631462A464346BDE8F09F2DE9BB
:10024000FE4F804681EA0300C00F0C46009021F06B
:10025000004123F00045B8EB0200A94105D2404619
:10026000214690461C460B46024623F000401043B0
:1002700047D0270DC7F30A00C3F30A510290401A72
:10028000019040286BDAC3F3130040F4801B009800
:10029000924620B10023D2EB030A63EB0B0B0198CB
:1002A0005946C0F14002504600F094F906460D460A
:1002B00050465946019A00F0ACF910EB0800614134
:1002C000002487EA115284EAE7731A4340D0009A67
:1002D00062B3019A012A4FEA075215DC001B61EB59
:1002E00002014FF0004202EA0752CDE90042001C31
:1002F00041F5801132462B4600F0ACF903B0BDE861
:10030000F08F40462146F9E7001B61EB0201001C1B
:1003100041F5801300185B412018A2F5001747EB48
:10032000030140EAD570B6196D4111E06D084FEA3E
:10033000360645EAC0754FEA0752001B61EB020121
:10034000001C41F5801149084FEA30000019514165
:1003500032462B4603B0BDE8F04F00F06CB9009870
:10036000012240000023D0EB020263EBE07300980F
:1003700021464FEAE074B8EB000061EB0401E9E7C5
:1003800083F000435BE781F0004158E72DE9FE4F21
:1003900081EA030404F0004421F0004100944FF08E
:1003A000000B23F0004350EA01045ED052EA03043C
:1003B0005BD0C3F30A54C1F30A552C44A4F2F334BE
:1003C0000194A0FB0254C1F3130141F48011C3F363
:1003D000130343F4801301FB024400FB034E840A21
:1003E000970A44EA815447EA8357A4FB07680295B9
:1003F0008D0A05FB07854FEA932C04FB0C54270557
:10040000029D4FEA065847EA1637B5EB08056EEB32
:10041000070C870E920E47EA811742EA8312A7FB68
:100420000201B6EB0B0164EB00042B0D43EA0C3325
:100430005E1844EB1C50DA465146E7FB0201C5F357
:1004400013044FEA0B3343EA14534FEA0432019C7E
:1004500043EA0603A4F10C040294009CCDE900B425
:1004600000F0F8F803B0BDE8F08F00200146F9E78E
:100470002DE9F04D81EA030404F0004B21F0004522
:1004800014464FF0000A23F0004150EA050220D044
:1004900054EA01021DD0C5F30A570246C5F31303FF
:1004A000C1F31300C1F30A5640F4801543F48013DE
:1004B000A7EB0608101BD64608F2FD3873EB0500C3
:1004C00002D308F1010801E092185B41B8F1000F76
:1004D00003DA00200146BDE8F08D00204FF48011C2
:1004E000064684460EE0171B73EB050705D3121B67
:1004F00063EB050306434CEA010C49084FEA300060
:1005000092185B4150EA0107EDD152EA030012D084
:1005100082EA040083EA0501084305D0101BAB41C1
:1005200006D20122002306E000224FF0004302E041
:100530006FF0010253101AEB06004CEB085110EB60
:100540000A0041EB0B01BDE8F04D00F074B8C1F3B7
:100550000A52C1F3130140F2FF3341F480119A4271
:1005600002DA00200146704740F233439A42A2F279
:10057000334202DC524200F03CB800F02BB80000DD
:1005800030B5041E71F1000404DB4FF0004440421A
:1005900064EB0101141E73F1000405DB1C464FF0EF
:1005A0000043524263EB0403994208BF904230BDBE
:1005B000064C074D06E0E06840F0010394E80700B0
:1005C00098471034AC42F6D3FFF7B6FD245100082B
:1005D00044510008202A04DB203A00FA02F10020EE
:1005E00070479140C2F1200320FA03F31943904071
:1005F0007047202A04DB203A21FA02F000217047DC
:1006000021FA02F3D040C2F120029140084319467A
:100610007047202A06DBCB17203A41FA02F043EA62
:10062000E07306E041FA02F3D040C2F120029140AB
:1006300008431946704710B5141E73F1000408DA18
:10064000401C41F1000192185B411A4301D120F096
:10065000010010BD2DE9F04D92469B4611B1B1FA53
:1006600081F202E0B0FA80F220329046FFF7B2FF4A
:1006700004460F4640EA0A0041EA0B0153465A4637
:10068000084313D0114653EA010019D0C8F14002C3
:100690005046FFF7AEFF05460E46504659464246C5
:1006A000FFF798FF084305D0012004E020463946B3
:1006B000BDE8F08D0020054346EAE0762C43374341
:1006C0000A986305E40AA0EB08000022FD0A44EA48
:1006D00047540A3002D500200146E9E70105101908
:1006E0006941DDE9084500196941BDE8F04DA2E71F
:1006F00070B58D1810F8014B14F0030201D110F8F9
:10070000012B231106D110F8013B03E010F8016B17
:1007100001F8016B521EF9D1ABB110F8012B04F0B6
:100720000C048A1A0C2C03D0A2EB84129B1C08E048
:1007300010F8014BA2EB0422F8E712F8014B01F884
:10074000014B5B1EF9D5A942D4D3002070BD000037
:10075000FFE7FEE780B540F28050C2F2000000F0F3
:100760007BFB80BD80B540F23C50C2F2000000F03F
:1007700073FB80BD84B003900291019200930398B3
:10078000C16B026C01209040486000980399096891
:10079000486003984068102809D1FFE70198039941
:1007A00009688860029803990968C86008E002989F
:1007B000039909688860019803990968C860FFE790
:1007C00004B0704780B582B040F25460C2F20000BD
:1007D0004078C007002800F0EB80FFE7252001F0FB
:1007E0009BF9FFE740F25860C2F2000003F0DAFE26
:1007F000002840F0D380FFE740F25860C2F20000CA
:100800000DF1070103F0E4FE40F62410C2F20000EF
:1008100000687F280FD8FFE79DF8070040F62413F3
:10082000C2F200031A68511C196040F6A401C2F21A
:100830000001885406E040F62411C2F200010020B5
:100840000860FFE740F62410C2F200000068B0B173
:10085000FFE740F62410C2F20000006840F6A40151
:10086000C2F20001084410F8010CEE2807D1FFE79E
:1008700040F21041C2F2000101208870FFE740F60B
:100880002410C2F2000000680428C0F08680FFE750
:1008900040F62410C2F20000006840F6A401C2F243
:1008A0000001084410F8010CFF2876D1FFE740F65C
:1008B0002410C2F20000006840F6A401C2F2000158
:1008C000084410F8020CFF2867D1FFE740F6241017
:1008D000C2F20000006840F6A401C2F20001084420
:1008E00010F8030CFC2858D1FFE740F62410C2F2A0
:1008F0000000006840F6A401C2F20001084410F8AC
:10090000040CFF2849D1FFE740F6A400C2F2000022
:10091000C278017941EA022240F21041C2F200019C
:100920000A814379827942EA03224A81C0790873B5
:1009300001200870087040F62410C2F20000006820
:100940000838102819D8FFE740F21040C2F2000022
:10095000002140F80D1FC1608160416040F6241104
:10096000C2F200010968A1F1080240F6A401C2F236
:1009700000010831FFF7F8FB06E045F2FF00C0F682
:10098000000003F01FFFFFE700F014F840F6241109
:10099000C2F200010020086000E023E7252001F0FA
:1009A000C5F840F25461C2F2000100204870FFE730
:1009B00002B080BD80B582B040F21040C2F20000AB
:1009C0000078C00720B3FFE740F21040C2F20000F9
:1009D000007B01460191102804D0FFE701981128FF
:1009E0000AD013E040F21042C2F20002108951898D
:1009F000527B02F025FE0AE040F21042C2F20002F1
:100A0000108951890D3202F035FE00E0FFE7FFE763
:100A100002B080BD80B582B00190ADF8021001989F
:100A2000BDF8021040F20C62C2F2000203F062FB59
:100A300002B080BD7047000080B584B069460320D5
:100A400008600120029002210191C822002302F0D7
:100A50008DFE029845F2F202C0F60002062102F075
:100A6000C1FE0199029B40F67000C2F200000390A3
:100A7000026840F20800C2F2000050F82220042070
:100A800002F038FE03980168013101600068FF2818
:100A900007D3FFE740F67001C2F2000100200860B2
:100AA000FFE704B080BD000081B0EFF3108072B6A4
:100AB0000090FFE7FEE7000040F67800C2F2000079
:100AC0000088704783B0019000208DF803000198E2
:100AD00090F8210002280DD0FFE7019904208863D7
:100AE000FFE70199002081F82000FFE701208DF841
:100AF0000B0021E001980168086820F00E000860F2
:100B000001980168086820F0010008600198C16B35
:100B1000026C012090404860FFE70199012081F8B4
:100B20002100FFE70199002081F82000FFE79DF8F0
:100B300003008DF80B00FFE79DF80B0003B0704732
:100B400080B596B0159000208DF85300159890F858
:100B50002100022807D0FFE71599042088630120AF
:100B60008DF8530074E115980168086820F00E00B4
:100B7000086015980168086820F001000860159861
:100B800000688121C4F202018842C0F0A880FFE71A
:100B9000159800680821C4F20201884203D1FFE7DA
:100BA0000120139094E0159800681C21C4F2020102
:100BB000884203D1FFE71020129086E01598006864
:100BC0003021C4F20201884204D1FFE74FF4807063
:100BD000119077E0159800684421C4F20201884220
:100BE00004D1FFE74FF48050109068E0159800683A
:100BF0005821C4F20201884204D1FFE74FF480304B
:100C00000F9059E0159800686C21C4F202018842E7
:100C100004D1FFE74FF480100E904AE01598006869
:100C20008021C4F20201884204D1FFE74FF08070B6
:100C30000D903BE01598006840F20841C4F20201B3
:100C4000884203D1FFE701200C902CE01598006842
:100C500040F21C41C4F20201884203D1FFE7102098
:100C60000B901DE01598006840F23041C4F202017B
:100C7000884204D1FFE74FF480700A900DE0159888
:100C8000016840F24442C4F202024FF480309142C3
:100C900008BF4FF480500A90FFE70A980B90FFE7D7
:100CA0000B980C90FFE70C980D90FFE70D980E90B5
:100CB000FFE70E980F90FFE70F981090FFE710984E
:100CC0001190FFE711981290FFE712981390FFE739
:100CD000139840F20441C4F202010860A5E015989F
:100CE00000680821C4F20201884203D1FFE7012015
:100CF000099094E0159800681C21C4F20201884212
:100D000003D1FFE71020089086E015980068302195
:100D1000C4F20201884204D1FFE74FF480700790CB
:100D200077E0159800684421C4F20201884204D19A
:100D3000FFE74FF48050069068E01598006858214E
:100D4000C4F20201884204D1FFE74FF480300590DD
:100D500059E0159800686C21C4F20201884204D160
:100D6000FFE74FF4801004904AE015980068802156
:100D7000C4F20201884204D1FFE74FF08070039073
:100D80003BE01598006840F20841C4F20201884235
:100D900003D1FFE7012002902CE01598006840F293
:100DA0001C41C4F20201884203D1FFE710200190E8
:100DB0001DE01598006840F23041C4F202018842FB
:100DC00004D1FFE74FF4807000900DE015980168A2
:100DD00040F24442C4F202024FF48030914208BF14
:100DE0004FF480500090FFE700980190FFE70198D2
:100DF0000290FFE702980390FFE703980490FFE753
:100E000004980590FFE705980690FFE7069807907D
:100E1000FFE707980890FFE708980990FFE709980F
:100E20000421C4F202010860FFE71599012081F84E
:100E30002100FFE71599002081F82000FFE71598B1
:100E4000406B20B1FFE71598416B8847FFE7FFE74C
:100E50009DF8530016B080BD80B5ACB02B902B9898
:100E6000C06B00682A902B980068006829902A9827
:100E70002B99096CC8404007002840F17581FFE7B5
:100E80009DF8A4004007002840F16E81FFE72B98F1
:100E9000006800688006002807D4FFE72B980168E7
:100EA000086820F004000860FFE72B9800688121A3
:100EB000C4F202018842C0F0A880FFE72B980068C6
:100EC0000821C4F20201884203D1FFE704202890E0
:100ED00094E02B9800681C21C4F20201884203D1DF
:100EE000FFE74020279086E02B9800683021C4F26D
:100EF0000201884204D1FFE74FF48060269077E03A
:100F00002B9800684421C4F20201884204D1FFE713
:100F10004FF48040259068E02B9800685821C4F277
:100F20000201884204D1FFE74FF48020249059E069
:100F30002B9800686C21C4F20201884204D1FFE7BB
:100F40004FF4800023904AE02B9800688021C4F27F
:100F50000201884204D1FFE74FF0806022903BE01D
:100F60002B98006840F20841C4F20201884203D184
:100F7000FFE7042021902CE02B98006840F21C41F0
:100F8000C4F20201884203D1FFE7402020901DE017
:100F90002B98006840F23041C4F20201884204D12B
:100FA000FFE74FF480601F900DE02B98016840F23E
:100FB0004442C4F202024FF48020914208BF4FF431
:100FC00080401F90FFE71F982090FFE72098219016
:100FD000FFE721982290FFE722982390FFE72398CC
:100FE0002490FFE724982590FFE725982690FFE7B7
:100FF00026982790FFE727982890FFE7289840F247
:101000000441C4F202010860A5E02B9800680821A1
:10101000C4F20201884203D1FFE704201E9094E04D
:101020002B9800681C21C4F20201884203D1FFE71B
:1010300040201D9086E02B9800683021C4F2020108
:10104000884204D1FFE74FF480601C9077E02B9832
:1010500000684421C4F20201884204D1FFE74FF442
:1010600080401B9068E02B9800685821C4F2020170
:10107000884204D1FFE74FF480201A9059E02B9862
:1010800000686C21C4F20201884204D1FFE74FF4EA
:10109000800019904AE02B9800688021C4F2020178
:1010A000884204D1FFE74FF0806018903BE02B9816
:1010B000006840F20841C4F20201884203D1FFE710
:1010C000042017902CE02B98006840F21C41C4F2D9
:1010D0000201884203D1FFE7402016901DE02B98C3
:1010E000006840F23041C4F20201884204D1FFE7B7
:1010F0004FF4806015900DE02B98016840F2444257
:10110000C4F202024FF48020914208BF4FF48040A5
:101110001590FFE715981690FFE716981790FFE7D0
:1011200017981890FFE718981990FFE719981A90E8
:10113000FFE71A981B90FFE71B981C90FFE71C988D
:101140001D90FFE71D981E90FFE71E980421C4F232
:1011500002010860FFE72B98C06A20B1FFE72B98D7
:10116000C16A8847FFE7B7E12A982B99096CC84004
:101170008007002840F17F81FFE79DF8A4008007E9
:10118000002840F17881FFE72B980068006880060E
:1011900000280BD4FFE72B980168086820F00A00AC
:1011A00008602B99012081F82100FFE72B98006847
:1011B0008121C4F202018842C0F0A880FFE72B9889
:1011C00000680821C4F20201884203D1FFE702202F
:1011D000149094E02B9800681C21C4F2020188420C
:1011E00003D1FFE72020139086E02B980068302180
:1011F000C4F20201884204D1FFE74FF4007012905C
:1012000077E02B9800684421C4F20201884204D19F
:10121000FFE74FF40050119068E02B9800685821C8
:10122000C4F20201884204D1FFE74FF4003010906D
:1012300059E02B9800686C21C4F20201884204D165
:10124000FFE74FF400100F904AE02B9800688021D0
:10125000C4F20201884204D1FFE74FF000700E9003
:101260003BE02B98006840F20841C4F2020188423A
:1012700003D1FFE702200D902CE02B98006840F28C
:101280001C41C4F20201884203D1FFE720200C90E8
:101290001DE02B98006840F23041C4F20201884200
:1012A00004D1FFE74FF400700B900DE02B9801681C
:1012B00040F24442C4F202024FF40030914208BFAF
:1012C0004FF400500B90FFE70B980C90FFE70C9841
:1012D0000D90FFE70D980E90FFE70E980F90FFE737
:1012E0000F981090FFE710981190FFE71198129057
:1012F000FFE712981390FFE713981490FFE71498F4
:1013000040F20441C4F202010860A5E02B98006895
:101310000821C4F20201884203D1FFE702200A90AB
:1013200094E02B9800681C21C4F20201884203D18A
:10133000FFE72020099086E02B9800683021C4F256
:101340000201884204D1FFE74FF40070089077E073
:101350002B9800684421C4F20201884204D1FFE7BF
:101360004FF40050079068E02B9800685821C4F2B1
:101370000201884204D1FFE74FF40030069059E0A3
:101380002B9800686C21C4F20201884204D1FFE767
:101390004FF4001005904AE02B9800688021C4F2B9
:1013A0000201884204D1FFE74FF0007004903BE057
:1013B0002B98006840F20841C4F20201884203D130
:1013C000FFE7022003902CE02B98006840F21C41BC
:1013D000C4F20201884203D1FFE7202002901DE001
:1013E0002B98006840F23041C4F20201884204D1D7
:1013F000FFE74FF4007001900DE02B98016840F278
:101400004442C4F202024FF40030914208BF4FF44C
:1014100000500190FFE701980290FFE702980390C7
:10142000FFE703980490FFE704980590FFE705980D
:101430000690FFE706980790FFE707980890FFE7F8
:1014400008980990FFE709980A90FFE70A98042195
:10145000C4F202010860FFE7FFE72B99002081F842
:101460002000FFE72B98806A20B1FFE72B98816A64
:101470008847FFE72FE02A982B99096CC84000079E
:10148000002827D5FFE79DF8A4000007002821D5F4
:10149000FFE72B980168086820F00E0008602B9881
:1014A000C26B016C012000FA01F151602B99886335
:1014B0002B9981F82100FFE72B99002081F820006B
:1014C000FFE72B98006B20B1FFE72B98016B884753
:1014D000FFE7FFE7FFE7FFE72CB080BD83B0019097
:1014E00000200090019820B9FFE701208DF80B0043
:1014F0006AE00198006840F20741C4F202018842A4
:1015000018D8FFE7019908684FF6F872CBF6FD721C
:1015100010444CF6CD42CCF6CC42A0FB02026FF058
:10152000030000EA9200086401990020C4F202005E
:10153000C86318E0019908684FF6F832CBF6FD72DF
:1015400010444CF6CD42CCF6CC42A0FB02026FF028
:10155000030000EA92000864019940F20040C4F2DE
:101560000200C863FFE70199022081F82100019879
:10157000006800680090009843F6F071884300907E
:1015800001994868D1F808C0CB680A6940EA0C00A4
:10159000184310434A6910438A691043C9690143DB
:1015A0000098084300900098019909680860019923
:1015B00000208863019A012182F82110019981F8A5
:1015C00020008DF80B00FFE79DF80B0003B070477B
:1015D00080B586B0049003910292019300208DF8AB
:1015E0000300FFE7049890F82000012804D1FFE7EA
:1015F00002208DF817004CE00499012081F82000AA
:10160000FFE7FFE7049890F82100012832D1FFE7B7
:101610000499022081F8210004990020886304982D
:101620000168086820F00100086004980399029A94
:10163000019BFFF79FF80498C06A38B1FFE7049850
:101640000168086840F00E0008600CE0049801682A
:10165000086820F00400086004980168086840F0F9
:101660000A000860FFE704980168086840F001007C
:10167000086009E0FFE70499002081F82000FFE7F7
:1016800002208DF80300FFE79DF803008DF8170096
:10169000FFE79DF8170006B080BD000092B01190E2
:1016A000109100200F900B90FFE7109800680F99A1
:1016B000C840002800F09B81FFE70F990120884077
:1016C0000E90109800680E9908400D900D980E9994
:1016D000884240F08881FFE7109840680790002812
:1016E00051D0FFE7079801283AD0FFE70798022872
:1016F0003FD0FFE7079803285FD0FFE7079811283E
:1017000032D0FFE70798122838D0FFE7079800216A
:10171000C1F21101884236D0FFE707980021C1F2DB
:10172000120188422FD0FFE707980021C1F2210162
:10173000884228D0FFE707980021C1F222018842A1
:1017400021D0FFE707980021C1F2310188421AD069
:10175000FFE707980021C1F23201884213D02FE041
:101760001098C0680B902CE01098C06804300B9063
:1017700027E01098C06808300B9022E01098C068ED
:101780000C300B901DE01098806818B9FFE704201A
:101790000B9011E010988068012806D1FFE708201F
:1017A0000B900E981199086105E008200B900E9897
:1017B00011994861FFE7FFE703E000200B9000E08C
:1017C000FFE70D98FF2803D8FFE71198069003E084
:1017D000119804300690FFE706980A900D98FF28AC
:1017E00004D8FFE70F988000059006E00F996FF08E
:1017F0001F0000EB81000590FFE7059809900A980B
:101800000068099A0F21914088430B999140084341
:101810000A9908601098C079C006002840F1E2805B
:10182000FFE7FFE741F21800C4F20200016841F04F
:1018300001010160006800F0010008900898FFE7CE
:101840000F9820F003000821C4F2010140580C90C9
:101850000F9800F0030081000F2000FA01F10C98AE
:1018600088430C90119840F60001C4F201018842AF
:1018700003D1FFE70020049042E0119840F60041B8
:10188000C4F20101884203D1FFE70120039034E054
:10189000119841F20001C4F20101884203D1FFE72F
:1018A0000220029026E0119841F20041C4F20101A9
:1018B000884203D1FFE70320019018E0119841F618
:1018C0000001C4F20101884203D1FFE70420009027
:1018D0000AE0119941F60042C4F201020620914249
:1018E00008BF05200090FFE700980190FFE70198EE
:1018F0000290FFE702980390FFE703980490FFE748
:1019000004980F9901F00301890000FA01F10C9885
:1019100008430C900C980F9921F003010822C4F29F
:101920000102885010988079C006002809D5FFE789
:101930000D9A40F20841C4F20101086810430860A2
:1019400008E00D9A40F20841C4F201010868904392
:101950000860FFE7109880798006002809D5FFE726
:101960000D9A40F20C41C4F201010868104308606E
:1019700008E00D9A40F20C41C4F20101086890435E
:101980000860FFE7109880798007002809D5FFE7F5
:101990000D9A40F20441C4F2010108681043086046
:1019A00008E00D9A40F20441C4F201010868904336
:1019B0000860FFE710988079C00748B1FFE70D9AEB
:1019C00040F20041C4F2010108681043086008E0D9
:1019D0000D9A40F20041C4F201010868904308608A
:1019E000FFE7FFE7FFE70F9801300F905DE612B0C9
:1019F0007047000040F62820C2F2000000687047DF
:101A000040F20840C2F20000027840F62821C2F2FB
:101A100000010868104408607047000080B542F279
:101A20000001C4F20201086840F0100008600320C1
:101A300000F0A0F80F2000F005F800F03BF80020BF
:101A400080BD000080B582B0009040F20400C2F278
:101A50000000006840F20841C2F200010A784FF429
:101A60007A71B1FBF2F1B0FBF1F000F07DFD20B135
:101A7000FFE701208DF8070018E000980F280DD827
:101A8000FFE700994FF0FF30002200F059F800986E
:101A900040F20C41C2F20001086003E001208DF821
:101AA000070003E000208DF80700FFE79DF807001E
:101AB00002B080BD83B0FFE741F21800C4F202001B
:101AC000016841F001010160006800F0010002902E
:101AD0000298FFE7FFE741F21C00C4F20200016830
:101AE00041F080510160006800F080500190019841
:101AF000FFE7FFE70421C4F20101086800900098A5
:101B000020F0E0600090009840F000700090009895
:101B10000860FFE703B0704780B582B08DF807001A
:101B20009DF9070002F098FC02B080BD80B582B03C
:101B30008DF807009DF9070002F0AAFC02B080BDF5
:101B400080B586B08DF817000491039200200290B2
:101B500002F0B6FC02909DF91700019002980499DA
:101B6000039A01F037FD0146019802F0B1FC06B07E
:101B700080BD000080B582B00190019802F0CAFCDF
:101B800002B080BD80B584B002900191029820B966
:101B9000FFE701208DF80F001BE1019842F20001E0
:101BA000C4F20201096801F00701884216D9FFE773
:101BB00042F20000C4F20200016821F00701019A1C
:101BC00011430160006800F007000199884204D0C9
:101BD000FFE701208DF80F00FBE0FFE70298007897
:101BE000800700282AD5FFE70298007840070028E0
:101BF00009D5FFE741F20401C4F20201086840F48C
:101C0000E0600860FFE7029800780007002809D527
:101C1000FFE741F20401C4F20201086840F4605099
:101C20000860FFE741F20401C4F20201086820F0F5
:101C3000F000029A926810430860FFE7029800786B
:101C4000C007002860D0FFE70298406801280ED145
:101C5000FFE741F20000C4F20200006880030028A0
:101C600004D4FFE701208DF80F00B2E021E00298D4
:101C7000406802280ED1FFE741F20000C4F20200E2
:101C800000688001002804D4FFE701208DF80F00D0
:101C90009FE00DE041F20000C4F2020000688007FE
:101CA000002804D4FFE701208DF80F0091E0FFE742
:101CB000FFE741F20401C4F20201086820F00300CA
:101CC000029A526810430860FFF794FE0090FFE705
:101CD00041F20400C4F20200006800F00C00029916
:101CE0004968B0EB810F0ED0FFE7FFF783FE009944
:101CF000401A41F28931884204D3FFE703208DF86E
:101D00000F0066E0E4E7FFE7019842F20001C4F249
:101D10000201096801F00701884216D2FFE742F28A
:101D20000000C4F20200016821F00701019A11438A
:101D30000160006800F007000199884204D0FFE7C5
:101D400001208DF80F0044E0FFE70298007840077B
:101D500000280CD5FFE741F20401C4F20201086833
:101D600020F4E060029AD26810430860FFE702980E
:101D70000078000700280DD5FFE741F20401C4F206
:101D80000201086820F46050029A126940EAC20019
:101D90000860FFE700F04CF841F20401C4F20201D0
:101DA0000968C9B20A0945F2C801C0F60001895C98
:101DB000C84040F20401C2F20001086040F20C4049
:101DC000C2F200000068FFF73DFE00208DF80F0012
:101DD000FFE79DF80F0004B080BD000040F2040052
:101DE000C2F200000068704780B5FFF7F7FF41F2CC
:101DF0000401C4F202010968C1F3022245F2D801CC
:101E0000C0F60001895CC84080BD000080B5FFF7C6
:101E1000E5FF41F20401C4F202010968C1F3C222E4
:101E200045F2D801C0F60001895CC84080BD0000C1
:101E300086B000200590049003900290019041F23A
:101E40000400C4F2020000680590059800F00C0040
:101E50000146009100283FD0FFE70098042804D0F5
:101E6000FFE70098082806D037E041F20020C0F2D2
:101E70007A00019037E00598C0F3834145F2E00015
:101E8000C0F60000405C02909DF81600C007C0B18B
:101E9000FFE741F20400C4F202000068C0F34041D1
:101EA00045F2F000C0F60000405C0490029841F258
:101EB0000021C0F27A0148430499B0FBF1F003908D
:101EC00007E0029840F60011C0F23D01484303903C
:101ED000FFE70398019006E0FFE741F20020C0F21F
:101EE0007A000190FFE7019806B0704780B586B090
:101EF0000490049820B9FFE701208DF817002EE325
:101F000004980078C007002800F0AE80FFE741F297
:101F10000400C4F20200006800F00C00042813D092
:101F2000FFE741F20400C4F20200006800F00C0078
:101F300008281BD1FFE741F20400C4F20200006848
:101F4000C003002812D5FFE741F20000C4F20200EE
:101F500000688003002808D5FFE70498406820B98E
:101F6000FFE701208DF81700F9E27CE0FFE7049815
:101F70004068B0F5803F09D1FFE741F20001C4F2AB
:101F80000201086840F48030086032E0049840683C
:101F900068B9FFE741F20001C4F20201086820F4C9
:101FA00080300860086820F48020086020E00498F1
:101FB0004068B0F5A02F0DD1FFE741F20001C4F257
:101FC0000201086840F480200860086840F480300E
:101FD00008600CE041F20001C4F20201086820F43C
:101FE00080300860086820F480200860FFE7FFE781
:101FF000FFE7FFE704984068D0B1FFE7FFF7FAFC7E
:102000000390FFE741F20000C4F202000068800381
:1020100000280CD4FFE7FFF7EDFC0399401A652870
:1020200004D3FFE703208DF8170098E2EAE719E0F0
:10203000FFF7E0FC0390FFE741F20000C4F202006A
:102040000068800300280CD5FFE7FFF7D3FC039955
:10205000401A652804D3FFE703208DF817007EE2BD
:10206000EAE7FFE7FFE7FFE704980078800700282A
:1020700040F18D80FFE741F20400C4F202000068E5
:1020800010F00C0F13D0FFE741F20400C4F202007D
:10209000006800F00C00082829D1FFE741F2040095
:1020A000C4F202000068C003002820D4FFE741F218
:1020B0000000C4F2020000688007002809D5FFE78D
:1020C00004980069012804D0FFE701208DF817006B
:1020D00045E241F20001C4F20201086820F0F80074
:1020E000049A526940EAC2000860FFE74EE0049893
:1020F000006958B3FFE70021C4F2422101200860C3
:10210000FFF778FC0390FFE741F20000C4F2020001
:102110000068800700280CD4FFE7FFF76BFC0399E9
:10212000401A032804D3FFE703208DF8170016E2B6
:10213000EAE741F20001C4F20201086820F0F80069
:10214000049A526940EAC20008601EE00021C4F20D
:10215000422100200860FFF74DFC0390FFE741F2A9
:102160000000C4F202000068800700280CD5FFE7D9
:10217000FFF740FC0399401A032804D3FFE703202C
:102180008DF81700EBE1EAE7FFE7FFE7FFE70498C8
:1021900000780007002848D5FFE70498806918B345
:1021A000FFE740F28041C4F2422101200860FFF7BE
:1021B00021FC0390FFE741F22400C4F20200006812
:1021C000800700280CD4FFE7FFF714FC0399401A9E
:1021D000032804D3FFE703208DF81700BFE1EAE7E7
:1021E000012001F067FA1FE040F28041C4F2422171
:1021F00000200860FFF7FEFB0390FFE741F2240098
:10220000C4F202000068800700280CD5FFE7FFF742
:10221000F1FB0399401A032804D3FFE703208DF84C
:1022200017009CE1EAE7FFE7FFE704980078400722
:10223000002840F1D880FFE700208DF8070041F228
:102240001C00C4F202000068C000002813D4FFE79D
:10225000FFE741F21C00C4F20200016841F0805126
:102260000160006800F0805000900098FFE70120B6
:102270008DF80700FFE747F20000C4F20000006895
:10228000C005002822D4FFE747F20001C4F2000194
:10229000086840F480700860FFF7ACFB0390FFE72C
:1022A00047F20000C4F200000068C00500280CD40A
:1022B000FFE7FFF79FFB0399401A652804D3FFE768
:1022C00003208DF817004AE1EAE7FFE7FFE70498EB
:1022D000C068012809D1FFE741F22001C4F20201E0
:1022E000086840F00100086031E00498C06868B9EF
:1022F000FFE741F22001C4F20201086820F001006A
:102300000860086820F0040008601FE00498C068B6
:1023100005280DD1FFE741F22001C4F2020108684F
:1023200040F004000860086840F0010008600CE01C
:1023300041F22001C4F20201086820F001000860A7
:10234000086820F004000860FFE7FFE7FFE7FFE709
:102350000498C068E0B1FFE7FFF74CFB0390FFE78C
:1023600041F22000C4F202000068800700280ED469
:10237000FFE7FFF73FFB0399401A41F2893188429A
:1023800004D3FFE703208DF81700E8E0E8E71BE03F
:10239000FFF730FB0390FFE741F22000C4F2020098
:1023A0000068800700280ED5FFE7FFF723FB03999D
:1023B000401A41F28931884204D3FFE703208DF8A7
:1023C0001700CCE0E8E7FFE79DF80700012809D1F6
:1023D000FFE741F21C01C4F20201086820F08050BE
:1023E0000860FFE7FFE70498C069002800F0B380A9
:1023F000FFE741F20400C4F20200006800F00C00A4
:10240000082800F08280FFE70498C06902285CD1A8
:10241000FFE76021C4F2422100200860FFF7EAFADA
:102420000390FFE741F20000C4F20200006880015F
:1024300000280CD5FFE7FFF7DDFA0399401A0328BF
:1024400004D3FFE703208DF8170088E0EAE704983B
:10245000006AB0F5803F0CD1FFE741F20401C4F2FD
:102460000201086820F40030049A92681043086062
:10247000FFE741F20401C4F20201086820F474107D
:10248000049B1A6A5B6A1A43104308606021C4F215
:10249000422101200860FFF7ADFA0390FFE741F207
:1024A0000000C4F202000068800100280CD4FFE79D
:1024B000FFF7A0FA0399401A032804D3FFE703208B
:1024C0008DF817004BE0EAE71EE06021C4F24221DC
:1024D00000200860FFF78EFA0390FFE741F200004A
:1024E000C4F202000068800100280CD5FFE7FFF766
:1024F00081FA0399401A032804D3FFE703208DF8DB
:1025000017002CE0EAE7FFE724E00498C0690128FF
:1025100004D1FFE701208DF8170020E041F204000C
:10252000C4F2020000680290029800F4803004991E
:10253000096A884208D1FFE7029800F470100499F4
:10254000496A884204D0FFE701208DF8170006E0B1
:10255000FFE7FFE7FFE700208DF81700FFE79DF892
:10256000170006B080BD000080B582B001900198D0
:1025700001F09CF902B080BD81B0009001B07047BD
:1025800081B0009001B0704785B003900291FFE7E1
:10259000039890F83C00012804D1FFE702208DF851
:1025A00013006DE00399012081F83C00FFE7FFE78D
:1025B0000399022081F83D0003980068406801906B
:1025C0000398006880680090019820F070000190E6
:1025D00002980168019808430190019803990968DD
:1025E00048600398006842F60041C4F20101884245
:1025F0002AD0FFE70398006843F20041C4F20101CA
:10260000884221D0FFE703980068B0F1804F1BD0CB
:10261000FFE70398006840F20041C4F200018842DD
:1026200012D0FFE70398006840F60001C4F20001F1
:10263000884209D0FFE70398006840F60041C4F2E1
:10264000000188420ED1FFE7009820F08000009042
:10265000029841680098084300900098039909681F
:102660008860FFE70399012081F83D00FFE70399A7
:10267000002081F83C00FFE700208DF81300FFE701
:102680009DF8130005B0704780B582B000900098A7
:1026900020B9FFE701208DF807003FE0009890F88F
:1026A0003D0040B9FFE70099002081F83C00009808
:1026B00000F038F8FFE70099022081F83D0000990A
:1026C00051F8040B01F06AF90099012081F84600E5
:1026D000FFE70099012081F83E00009981F83F0052
:1026E000009981F84000009981F84100FFE7FFE779
:1026F0000099012081F84200009981F84300009977
:1027000081F84400009981F84500FFE70099012015
:1027100081F83D0000208DF80700FFE79DF80700D5
:1027200002B080BD80B584B003900398006840F685
:102730000001C4F20001884219D1FFE7FFE741F22E
:102740001C00C4F20200016841F00401016000684D
:1027500000F0040002900298FFE71E200190002282
:102760001146FFF7EDF90198FFF7E0F9FFE704B034
:1027700080BD000080B586B00490039100208DF8E4
:102780000B00FFE7049890F83C00012804D1FFE714
:1027900002208DF81700ABE00499012081F83C007D
:1027A000FFE7FFE70499022081F83D0004980068E4
:1027B00080680190019820F077000190019820F442
:1027C0007F40019001980499096888600398006827
:1027D0000090002872D0FFE7009810286ED0FFE725
:1027E000009820286AD0FFE70098302866D0FFE7DD
:1027F0000098402855D0FFE70098502837D0FFE7D1
:102800000098602840D0FFE7009870280BD0FFE7C1
:102810000098B0F5805F05D0FFE70098B0F5005F45
:1028200016D052E055E004980068039B5A689968F6
:10283000DB6801F05FF904980068806801900198F6
:1028400040F077000190019804990968886040E0A1
:1028500004980068039B5A689968DB6801F04AF99C
:1028600004980168886840F48040886031E00498EA
:102870000068039A5168D26801F06CF90498006806
:10288000502101F051F924E004980068039A51683E
:10289000D26801F087F904980068602101F044F9DA
:1028A00017E004980068039A5168D26801F052F961
:1028B00004980068402101F037F90AE004980068A4
:1028C0000399096801F030F903E001208DF80B004D
:1028D000FFE70499012081F83D00FFE704990020FB
:1028E00081F83C00FFE79DF80B008DF81700FFE72B
:1028F0009DF8170006B080BD81B0009001B0704710
:1029000080B584B0039003980068C0680290039873
:102910000068006901909DF804008007002824D514
:10292000FFE79DF80800800700281DD5FFE7039802
:1029300001686FF00200086103990120087703988D
:1029400000688069800720B1FFE70398FFF7D4FF94
:1029500006E0039800F0E2F8039800F0E3F8FFE7E0
:10296000039900200877FFE7FFE79DF80400400780
:10297000002825D5FFE79DF80800400700281ED550
:10298000FFE7039801686FF00400086103990220D3
:10299000087703980068806910F4407F04D0FFE74F
:1029A0000398FFF7A9FF06E0039800F0B7F8039833
:1029B00000F0B8F8FFE7039900200877FFE7FFE78A
:1029C0009DF804000007002824D5FFE79DF80800C3
:1029D000000700281DD5FFE7039801686FF0080085
:1029E000086103990420087703980068C06980078C
:1029F00020B1FFE70398FFF77FFF06E0039800F0A0
:102A00008DF8039800F08EF8FFE70399002008770F
:102A1000FFE7FFE79DF80400C006002825D5FFE783
:102A20009DF80800C00600281ED5FFE7039801683E
:102A30006FF0100008610399082008770398006878
:102A4000C06910F4407F04D0FFE70398FFF754FFFC
:102A500006E0039800F062F8039800F063F8FFE7DF
:102A6000039900200877FFE7FFE79DF80400C007FF
:102A700078B1FFE79DF80800C00748B1FFE7039869
:102A800001686FF001000861039800F04FF8FFE75C
:102A9000FFE79DF804000006002810D5FFE79DF829
:102AA00008000006002809D5FFE7039801686FF0C9
:102AB000800008610398FFF75FFDFFE7FFE79DF8DF
:102AC00004004006002810D5FFE79DF808004006E6
:102AD000002809D5FFE7039801686FF040000861FE
:102AE000039800F027F8FFE7FFE79DF80400800651
:102AF000002810D5FFE79DF808008006002809D5BA
:102B0000FFE7039801686FF0200008610398FFF762
:102B100037FDFFE7FFE704B080BD000081B0009003
:102B200001B0704781B0009001B0704781B0009053
:102B300001B0704781B0009001B0704780B586B099
:102B400004900391ADF80A20049890F842002028E0
:102B500048D1FFE7039820B1FFE7BDF80A0020B98C
:102B6000FFE701208DF8170040E004990120086379
:102B700004990020486304980399BDF80A2001F0E5
:102B800091FB8DF809000498006B012821D1FFE723
:102B9000FFE7002001900498006800680190049805
:102BA0000068406801900198FFE7FFE7FFE704989D
:102BB000006850E8030F40F010000090FFE7009914
:102BC0000498026842E803100028F0D1FFE7FFE70D
:102BD00003E001208DF80900FFE79DF809008DF85A
:102BE000170003E002208DF81700FFE79DF817009B
:102BF00006B080BD80B584B00390ADF80A1003988C
:102C0000006843F60001C4F20101884248D1FFE7A1
:102C100040F25860C2F2000001F0CEFC50BBFFE76A
:102C20000020ADF80800FFE7BDF80800BDF80A1065
:102C300088421EDAFFE740F25860C2F2000001F05D
:102C4000BBFC70B9FFE7BDF8081040F62810C2F2CF
:102C50000000415C40F25860C2F2000001F0E4FC68
:102C600000E006E0FFE7BDF808000130ADF808001D
:102C7000DAE7FFE740F62810C2F2000000904FF4B8
:102C800080710191FDF789FA0099019A0398FFF785
:102C900055FF40F25461C2F2000101204870FFE785
:102CA00004B080BD81B0009001B0704780B592B093
:102CB0001190119800680068109011980068C06821
:102CC0000F901198006840690E9000200D900C90B4
:102CD000109800F00F000D900D9888B9FFE79DF84F
:102CE0004000800600280AD5FFE79DF83C008006DA
:102CF000002804D5FFE7119801F046F9E9E1FFE764
:102D00000D98002800F0C280FFE79DF83800C0074A
:102D100038B9FFE7BDF83C0010F4907F00F0B680B2
:102D2000FFE79DF84000C00758B1FFE79DF83D0060
:102D3000C00730B1FFE71199486C40F001004864CA
:102D4000FFE79DF84000400700280BD5FFE79DF8FE
:102D50003800C00730B1FFE71199486C40F002001D
:102D60004864FFE79DF84000800700280BD5FFE787
:102D70009DF83800C00730B1FFE71199486C40F06A
:102D800004004864FFE79DF840000007002811D5C3
:102D9000FFE79DF83C008006002805D4FFE79DF87A
:102DA0003800C00730B1FFE71199486C40F00800C7
:102DB0004864FFE71198406C002866D0FFE79DF853
:102DC0004000800600280AD5FFE79DF83C008006F9
:102DD000002804D5FFE7119801F0D6F8FFE7119815
:102DE00000684069C0F380100C901198406C000797
:102DF000002804D4FFE70C9800283ED0FFE7119884
:102E000001F048F8119800684069400600282FD565
:102E1000FFE7FFE7FFE71198006850E8050F20F093
:102E200040000B90FFE70B991198026842E80510EB
:102E30000028F0D1FFE7FFE71198C06B98B1FFE7DA
:102E40001198C16B43F6F930C0F600004863119841
:102E5000C06BFDF775FE28B1FFE71198C06B416BA1
:102E60008847FFE703E01198FFF71CFFFFE703E047
:102E70001198FFF717FFFFE706E01198FFF712FF21
:102E8000119900204864FFE7FFE722E11198006BE9
:102E9000012840F0FE80FFE79DF84000C0060028B2
:102EA00040F1F780FFE79DF83C00C006002840F1A4
:102EB000F080FFE7FFE700200A90119800680068A3
:102EC0000A901198006840680A900A98FFE71198E4
:102ED000006840694006002840F18180FFE71198B2
:102EE000C06B00684068ADF82600BDF826000028D9
:102EF00074D0FFE7BDF826001199898D88426DDAFC
:102F0000FFE7BDF826001199C8851198C06B80694C
:102F1000202858D0FFE7FFE7FFE71198006850E846
:102F2000030F20F480700890FFE708991198026859
:102F300042E803100028F0D1FFE7FFE7FFE7FFE7D3
:102F40001198006850E8050F20F001000790FFE796
:102F500007991198026842E805100028F0D1FFE7B0
:102F6000FFE7FFE7FFE71198006850E8050F20F042
:102F700040000690FFE706991198026842E80510A4
:102F80000028F0D1FFE7FFE71199202081F84200E7
:102F9000119900200863FFE7FFE71198006850E8E7
:102FA000030F20F010000590FFE7059911980268C3
:102FB00042E803100028F0D1FFE7FFE71198C06B4B
:102FC000FDF780FDFFE71199022048631198818D7C
:102FD000C28D891A89B2FFF70DFEFFE779E01199DA
:102FE000888DC98D401AADF812001198C08D002847
:102FF0004ED0FFE7BDF81200002849D0FFE7FFE7F9
:10300000FFE71198006850E8030F20F490700390D8
:10301000FFE703991198026842E803100028F0D1F5
:10302000FFE7FFE7FFE7FFE71198006850E8050FAB
:1030300020F001000290FFE702991198026842E82F
:1030400005100028F0D1FFE7FFE71199202081F853
:103050004200119900200863FFE7FFE7119800681C
:1030600050E8030F20F010000190FFE7019911983C
:10307000026842E803100028F0D1FFE7FFE711994A
:10308000022048631198BDF81210FFF7B3FDFFE767
:103090001FE09DF84000000600280AD5FFE79DF8D4
:1030A0003C000006002804D5FFE7119801F080F9E4
:1030B0000FE09DF84000400600280AD5FFE79DF884
:1030C0003C004006002804D5FFE7119800F02CFFD3
:1030D000FFE712B080BD000080B582B0009000987C
:1030E00020B9FFE701208DF8070040E000988069D3
:1030F00008B1FFE700E0FFE7009890F8410040B911
:10310000FFE70099002081F84000009800F034F8B3
:10311000FFE70099242081F8410000980168C86801
:1031200020F40050C860009801F05EF80098016833
:10313000086920F49040086100980168486920F00F
:103140002A00486100980168C86840F40050C860CF
:10315000009900204864009A202182F84110009ACA
:1031600082F84210009948638DF80700FFE79DF848
:10317000070002B080BD000080B58EB00D90002029
:103180000C900B900A9009900D98006843F600018E
:10319000C4F20101884240F08B80FFE7FFE741F273
:1031A0001800C4F20200016841F480410160006827
:1031B00000F4804008900898FFE7FFE741F218000C
:1031C000C4F20200016841F004010160006800F0EF
:1031D000040007900798FFE74FF400700990022061
:1031E0000A9003200C9040F60000C4F20100039006
:1031F00009A90491FEF752FA039804994FF48062EA
:103200000992002205920A920B92FEF747FA05995D
:1032100040F28050C2F2000006904422C4F2020242
:1032200002601022426081608022C26001614161BF
:103230008161C161FEF752F918B1FFE7FDF734FC77
:10324000FFE7FFE70D9840F28051C2F20001816371
:103250000D984862FFE740F23C50C2F20000029035
:103260005821C4F202010160002141608160802286
:10327000C260016141618161C161FEF72FF918B13E
:10328000FFE7FDF711FCFFE7FFE70D9840F23C5127
:10329000C2F20001C1630D984862FFE7252001904A
:1032A00000221146FEF74CFC0198FEF73FFCFFE7B9
:1032B0000EB080BD81B0009001B0704781B0009029
:1032C00001B0704780B586B004900391ADF80A2034
:1032D000049890F8410020285DD1FFE7039820B1C1
:1032E000FFE7BDF80A0020B9FFE701208DF81700BD
:1032F00055E0039804990862BDF80A00049988848F
:10330000BDF80A000499C884049900204864049A0E
:10331000212182F8411004998A6B43F6BD51C0F611
:103320000001916204998A6B43F63961C0F600018D
:10333000D16204998A6B43F61941C0F6000111630A
:103340000499896B486303A8019004980268806B14
:10335000019909680432BDF80A30FEF739F904987A
:1033600001686FF040000860FFE7FFE7049800681D
:1033700050E8050F40F080000090FFE700990498A6
:10338000026842E805100028F0D1FFE7FFE70020BF
:103390008DF8170003E002208DF81700FFE79DF875
:1033A000170006B080BD000080B5C4B043904398BC
:1033B000006843F60001C4F20101884240D1FFE7F2
:1033C0000020ADF80A00FFE740F26470C2F200008E
:1033D00001F0E8F801460020019049B9FFE7BDF887
:1033E0000A100020B1F5807FB8BF01200190FFE7EF
:1033F0000198C00780B1FFE7BDF80A1003A8014497
:1034000040F26470C2F2000001F0E2F8BDF80A0078
:103410000130ADF80A00D7E7BDF80A00012807DB44
:10342000FFE74398BDF80A2003A9FFF74BFF06E02A
:1034300040F25461C2F2000100200870FFE7FFE78C
:1034400044B080BD81B0009001B07047FFE7FEE757
:1034500080B582B0ADF80600ADF80410FDF72CFB86
:10346000BDF80610401A81B2BDF804200020914238
:10347000C8BF012002B080BD80B584B0FFE741F233
:103480001400C4F20200016841F00101016000680B
:1034900000F0010003900398FFE70E200090002247
:1034A00001921146FEF74CFB0098FEF73FFB019A94
:1034B0000F2002901146FEF743FB0298FEF736FB01
:1034C00004B080BD82B0FFE741F21800C4F20200F0
:1034D000016841F010010160006800F010000190E7
:1034E0000198FFE7FFE741F21800C4F2020001680B
:1034F00041F004010160006800F0040000900098B1
:10350000FFE702B07047000080B588B0002101914C
:1035100007910691059104910391029140F2C450E4
:10352000C2F2000040F60002C4F20002026047222C
:103530004260816040F2E732C26001618161FFF761
:10354000A3F818B1FFE7FDF7AFFAFFE74FF480509B
:10355000049040F2C450C2F2000004A9FFF70AF937
:1035600018B1FFE7FDF7A0FAFFE7002002900390F3
:1035700040F2C450C2F2000002A9FFF705F818B1EA
:10358000FFE7FDF791FAFFE708B080BD80B582B094
:1035900040F20C60C2F20000019043F60001C4F258
:1035A000010101604FF4E131416000218160C1609F
:1035B00001610C2242618161C161FFF78DFD18B18B
:1035C000FFE7FDF771FAFFE702B080BDFFE7FEE716
:1035D000FFE7FEE788B0079006910592079800F094
:1035E000070004900498C0F10700052803D3FFE703
:1035F0000420019004E00498C0F107000190FFE767
:103600000198039004980430062803D8FFE70020AF
:10361000009003E0049803380090FFE700980290C0
:1036200006980399012202FA01F101390840029B30
:10363000984005999A40013A1140084308B07047F4
:1036400082B0ADF80600ADF804108DF80320BDF887
:10365000060001280CD1FFE7BDF80400012807D1BE
:10366000FFE79DF80300012801D1FFE7FFE7FFE72F
:1036700002B0704782B0ADF80600ADF804100092B9
:10368000BDF80600022811D1FFE7BDF804000228AA
:103690000CD1FFE7009A108940F23241C2F20001DA
:1036A0000881106852684A600860FFE702B07047FE
:1036B0007047000082B00190019840F20401C2F20C
:1036C00000010968C90844F6D352C1F26202A1FBA5
:1036D0000221890948430090FFE700BFFFE70098F7
:1036E000411E00910028F8D1FFE702B070470000AA
:1036F0007047000080B586B0ADF81600ADF8141024
:1037000004928DF80F30BDF81610BDF814204BF25E
:10371000601000F07DF800200190FFE701989DF80F
:103720000F10884218DAFFE700200090FFE70098AA
:1037300003280CDCFFE7009A04A8801AC0780DF17A
:103740000B018854FFE7009801300090EFE7FFE796
:10375000019801300190E1E70DF10B000421FDF724
:1037600059F900F07FF806B080BD000080B586B042
:1037700084460898ADF816C0ADF8141004928DF880
:103780000F308DF80E00BDF81610BDF814204BF266
:10379000071000F03DF89DF80F00002818BF012029
:1037A0008DF803009DF80E00082161F31F108DF8BD
:1037B00004009DF813008DF80500BDF812008DF887
:1037C00006000498000A8DF8070004988DF8080098
:1037D0000DF103000A21FDF71DF900F043F806B0D2
:1037E00080BD000080B582B0ADF80600ADF80410D1
:1037F0000092BDF80610BDF804204BF2101000F046
:1038000007F8009800F040F800F02CF802B080BDF6
:1038100080B584B0ADF80E00ADF80C10ADF80A20FC
:10382000EE208DF803009DF80F008DF80400BDF820
:103830000E008DF805009DF80D008DF80600BDF80E
:103840000C008DF807009DF80B008DF80800BDF8FE
:103850000A008DF809000DF103000721FDF7DAF8E1
:1038600004B080BD80B582B0FF208DF80400FC213B
:103870008DF805108DF806008DF8070001A80421C9
:10388000FDF7C8F802B080BD80B582B00190FFE7B7
:103890000198007838B1FFE70198411C019101219E
:1038A000FDF7B8F8F4E702B080BD000080B582B043
:1038B000009000980138B0F1807F03D3FFE701202A
:1038C000019019E0009801384EF21401CEF2000187
:1038D00008604FF0FF300F2100F0FAFD4EF21801A2
:1038E000CEF20001002008604EF21002CEF200027B
:1038F000072111600190FFE7019802B080BD000030
:1039000080B5FEF77DF800F001F880BD40F6780143
:10391000C2F20001088801300880704780B590B07D
:1039200006A800902821FCF738FC00980023059396
:103930000493039302930193012206924FF4803182
:10394000079108930A9202220D920E914FF4E01112
:103950000F91FEF7CBFA18B1FFE7FDF7A5F8FFE7E7
:103960000F20019002210291002003904FF4806209
:103970000492059001A8FEF705F918B1FFE7FDF7DD
:1039800093F8FFE710B080BD7047000080B540F2AB
:10399000C450C2F20000FEF7B3FF80BD83B00290B6
:1039A0000191029800680090029842F60041C4F22A
:1039B0000101884225D0FFE7029843F20041C4F29A
:1039C000010188421DD0FFE70298B0F1804F18D066
:1039D000FFE7029840F20041C4F20001884210D093
:1039E000FFE7029840F60001C4F20001884208D0C7
:1039F000FFE7029840F60041C4F2000188420AD174
:103A0000FFE7009820F0700000900198416800984E
:103A100008430090FFE7029842F60041C4F201011A
:103A2000884225D0FFE7029843F20041C4F2010129
:103A300088421DD0FFE70298B0F1804F18D0FFE711
:103A4000029840F20041C4F20001884210D0FFE722
:103A5000029840F60001C4F20001884208D0FFE756
:103A6000029840F60041C4F2000188420AD1FFE703
:103A7000009820F4407000900198C16800980843B5
:103A80000090FFE7009820F0800001994969084301
:103A90000090009802990860019880680299C862B5
:103AA0000198006802998862029842F60041C4F2C7
:103AB0000101884208D0FFE7029843F20041C4F2B6
:103AC0000101884205D1FFE7019800690299086366
:103AD000FFE702990120486102980069C00730B1F0
:103AE000FFE70299086920F001000861FFE703B0D1
:103AF0007047000085B004900391029201930498EE
:103B000080680090009820F47F400090039802990C
:103B1000019A41EA0221014300980843009000986D
:103B20000499886005B0704783B0029001910298B3
:103B300080680090009820F0700000900198009933
:103B4000084340F00700009000980299886003B095
:103B50007047000085B00490039102920498006AB7
:103B600000900499086A20F00100086204988069B6
:103B70000190019820F0F00001900299019840EA2C
:103B800001100190009820F00A000090039900981D
:103B9000084300900198049988610098049908628C
:103BA00005B0704785B00490039102920498006AB2
:103BB00000900499086A20F0100008620498806957
:103BC0000190019820F4704001900299019840EA18
:103BD00001300190009820F0A00000900399009817
:103BE00040EA0110009001980499886100980499B6
:103BF000086205B07047000080B582B0019001985E
:103C0000406A009000990020C8850099C8840098F7
:103C1000FFF748F802B080BD80B584B00390002063
:103C200002900398406A0190019800684069C0B210
:103C3000C0090290019890F8410021280AD1FFE7BD
:103C4000029838B1FFE701990020C884019800F07C
:103C50007FF9FFE7019800684069C0F38010029087
:103C6000019890F8420022280AD1FFE7029838B163
:103C7000FFE701990020C885019800F00BF9FFE7E4
:103C80000199486C40F0100048640198FFF70AF869
:103C900004B080BD80B586B005900598406A049058
:103CA000059800680068800600285AD4FFE7049948
:103CB0000020C885FFE7FFE70498006850E8030F7D
:103CC00020F480700390FFE703990498026842E8AB
:103CD00003100028F0D1FFE7FFE7FFE7FFE70498B4
:103CE000006850E8050F20F001000290FFE70299FC
:103CF0000498026842E805100028F0D1FFE7FFE7CA
:103D0000FFE7FFE70498006850E8050F20F0400047
:103D10000190FFE701990498026842E80510002825
:103D2000F0D1FFE7FFE70499202081F842000498D2
:103D3000006B012814D1FFE7FFE7FFE70498006854
:103D400050E8030F20F010000090FFE7009904985E
:103D5000026842E803100028F0D1FFE7FFE7FFE721
:103D6000FFE70499002048630498006B012805D1FF
:103D7000FFE70498818DFEF73DFF03E00498FFF70D
:103D800099FAFFE706B080BD80B582B00190019836
:103D9000406A00900099012048630098006B012858
:103DA00006D1FFE70098818D4908FEF723FF03E065
:103DB0000098FFF783FAFFE702B080BD80B584B0BA
:103DC00003900398406A0290039800680068800698
:103DD00000282AD4FFE702990020C884FFE7FFE704
:103DE0000298006850E8050F20F080000190FFE77E
:103DF00001990298026842E805100028F0D1FFE717
:103E0000FFE7FFE7FFE70298006850E8030F40F084
:103E100040000090FFE700990298026842E8031012
:103E20000028F0D1FFE7FFE703E00298FFF7BCFAB4
:103E3000FFE704B080BD000080B582B0019001981A
:103E4000406A00900098FFF7FDFA02B080BD0000C4
:103E500080B582B00190019840F62811C2F20001AD
:103E60004FF48072FEF76AFE02B080BD80B582B06A
:103E7000019040F25860C2F2000000F087FB40F26F
:103E80006470C2F2000000F081FB0198FFF7E0FFD0
:103E900002B080BD84B00390FFE7FFE7039800689D
:103EA00050E8030F20F490700290FFE70299039806
:103EB000026842E803100028F0D1FFE7FFE7FFE7C0
:103EC000FFE70398006850E8050F20F0010001901B
:103ED000FFE701990398026842E805100028F0D135
:103EE000FFE7FFE70398006B012814D1FFE7FFE726
:103EF000FFE70398006850E8030F20F010000090DF
:103F0000FFE700990398026842E803100028F0D107
:103F1000FFE7FFE7FFE70399202081F842000399BC
:103F20000020086304B0704780B582B0019001980A
:103F30000168C86820F04000C8600199202081F81D
:103F400041000198FFF730FA002002B080BD000068
:103F500082B00190FFE7FFE70198006850E8030F87
:103F600020F0C0000090FFE700990198026842E845
:103F700003100028F0D1FFE7FFE70199202081F826
:103F8000410002B07047000080B586B004900498EC
:103F900090F84200222840F0A480FFE7049880684F
:103FA000B0F5805F15D1FFE70498006988B9FFE795
:103FB000002003900498806A02900498006840688A
:103FC0006FF35F20029908800499886A0230886242
:103FD00025E00498806A039000200290049880688D
:103FE000B0F5805F08D0FFE70498806850B9FFE71C
:103FF0000498006930B9FFE70498006840680399A5
:10400000087007E004980068406800F07F0003999A
:104010000870FFE70499886A01308862FFE7049915
:10402000C88D0138C8850004002856D1FFE70498E0
:104030000168C86820F02000C86004980168C8685A
:1040400020F48070C86004980168486920F001007D
:1040500048610499202081F84200049900204863B7
:104060000498006B012830D1FFE704990020086311
:10407000FFE7FFE70498006850E8030F20F0100006
:104080000190FFE701990498026842E803100028B4
:10409000F0D1FFE7FFE7049800680068C006002839
:1040A0000ED5FFE7FFE70020009004980068006845
:1040B000009004980068406800900098FFE7FFE7D0
:1040C0000498818DFEF796FD03E00498FFF7F2F85F
:1040D000FFE700208DF8170007E000208DF817009B
:1040E00003E002208DF81700FFE79DF8170006B0E7
:1040F00080BD000080B586B00590ADF81210039227
:104100000020ADF80A00ADF80800FFE7BDF8080090
:10411000BDF81210884211DAFFE70598BDF80810C3
:10412000415C40F26470C2F2000000F07DFAFFE7EB
:10413000BDF808000130ADF80800E7E740F2546030
:10414000C2F200000078C00700284BD1FFE740F220
:104150005461C2F2000101200870FFE740F2647070
:10416000C2F2000000F01EFA01460020019049B999
:10417000FFE7BDF80A100020B1F5807FB8BF01202D
:104180000190FFE70198C00798B1FFE7BDF80A105A
:1041900040F23C40C2F20000014440F26470C2F2BE
:1041A000000000F015FABDF80A000130ADF80A0071
:1041B000D4E7BDF80A0001280ADBFFE70398BDF841
:1041C0000A2040F23C41C2F20001FFF77BF808E010
:1041D00040F25461C2F2000100200870ADF80A00FC
:1041E000FFE7FFE706B080BD80B584B00390039879
:1041F0000068006920F44050039A1168D2681043A7
:104200000861039988680A69496910430843029064
:1042100003980068C06841F20C6188430299084322
:1042200003990968C86003980068406920F44070E9
:10423000039A11689269104348610398006843F635
:104240000001C4F20101884204D1FFE7FDF7DEFD61
:10425000019003E0FDF7C8FD0190FFE701981921E7
:104260004843039A116852689200B0FBF2FC48F28E
:104270001F52C5F2EB12ACFB02304309642003FB72
:1042800010CC322000EB0C10A0FB0202F02000EA60
:10429000521000EB0310C2F343121044886004B0C4
:1042A00080BD000080B588B007900691ADF816205B
:1042B000069807998862BDF81600079988850799BE
:1042C00000204864079A222182F842100799CA6B9D
:1042D00043F69541C0F6000191620799CA6B43F617
:1042E0008951C0F60001D1620799CA6B43F61941A2
:1042F000C0F6000111630799C96B486306A80490D2
:1043000007980168C06B0431049A1268BDF8163032
:10431000FDF75EF9FFE7002003900798006800684A
:10432000039007980068406803900398FFE7079898
:104330000069A0B1FFE7FFE7FFE70798006850E8D2
:10434000030F40F480700290FFE70299079802681B
:1043500042E803100028F0D1FFE7FFE7FFE7FFE79F
:10436000FFE70798006850E8050F40F00100019052
:10437000FFE701990798026842E805100028F0D18C
:10438000FFE7FFE7FFE7FFE70798006850E8050F42
:1043900040F040000090FFE700990798026842E86B
:1043A00005100028F0D1FFE7FFE7002008B080BD2E
:1043B00083B00190019890F8410021283AD1FFE79D
:1043C00001988068B0F5805F13D1FFE7019800691C
:1043D00078B9FFE70198006A0090009800886FF3B1
:1043E0005F200199096848600199086A02300862F3
:1043F00008E0019A106A411C11620078019909686D
:104400004860FFE70199C88C0138C884000468B986
:10441000FFE701980168C86820F08000C860019833
:104420000168C86840F04000C860FFE700208DF8D0
:104430000B0003E002208DF80B00FFE79DF80B0056
:1044400003B0704780B540F20C60C2F20000FEF786
:104450002DFC80BDFFE7FEE781B08DF803009DF9DC
:104460000300002812D4FFE79DF9031001F01F029A
:10447000012090404A094EF28011CEF2000141F82D
:104480002200BFF34F8FBFF36F8FFFE701B070477C
:1044900081B08DF803009DF9030000280ED4FFE7DA
:1044A0009DF9031001F01F02012090404A094EF2CD
:1044B0000011CEF2000141F82200FFE701B0704781
:1044C0004EF60C50CEF200000068C0F30220704798
:1044D00082B08DF8070000919DF9070000280AD4EA
:1044E000FFE7009800019DF907104EF20042CEF25E
:1044F000000288540BE0009800019DF8071001F0BD
:104500000F014EF61452CEF200028854FFE702B0BB
:104510007047000083B00290029800F007000090FE
:104520004EF60C51CEF200010868019001984FF64A
:10453000FF02104001900198009A40EA02200022F8
:10454000C0F2FA52104301900198086003B070471E
:1045500080B540F20C60C2F20000FFF787FC80BD1E
:1045600080B582B000200190FDF758FAFFF7D6F928
:10457000FEF7A8FFFEF780FFFFF708F8FEF7C4FF7D
:1045800000F0FAF8FFE700F0F3F8FCE781B00090E4
:10459000009900200860009948600099C1F808015E
:1045A00001B0704781B000900098D0F80801B0FACF
:1045B00080F0400901B0704781B000900098D0F8B9
:1045C0000801A0F58070B0FA80F0400901B0704792
:1045D00080B584B002900191029818B1FFE701986C
:1045E00018B9FFE7002003901BE00298FFF7DAFFFD
:1045F00018B1FFE70020039013E0029841680844D7
:10460000007A01990870029948680130C0B2486088
:104610000299D1F808010138C1F80801012003907E
:10462000FFE7039804B080BD80B584B002908DF898
:1046300007100298FFF7C0FF18B1FFE700200390B2
:1046400021E002980068FF2806D8FFE7029840683A
:10465000B0F5807F03D3FFE70020039013E09DF8BF
:10466000070002990A68114408720299086801302B
:10467000C0B208600299D1F808010130C1F8080100
:1046800001200390FFE7039804B080BD80B586B099
:104690000590049103920020019002900599086111
:1046A000C86088604860086005990870039805999B
:1046B0004860FCF701FA01460198059A9160049957
:1046C000059AD1600599086140F67400C2F20000B5
:1046D000006838B9FFE7059840F67401C2F200019E
:1046E000086012E040F67400C2F200000068029018
:1046F000FFE70298006920B1FFE702980069029085
:10470000F7E7059802990861FFE706B080BD000051
:1047100080B582B00020019040F67400C2F2000023
:1047200000680190FFE70198C0B1FFE701980078A9
:1047300078B1FFE7019908898988FEF789FE40B1C1
:10474000FFE70198C0688047FCF7B6F901998860D7
:10475000FFE7FFE7019800690190E4E702B080BD40
:1047600081B0009000990120087001B070470000EE
:1047700080B5FFF7CDFF80BD80B584B0FFF7E8FEC0
:1047800040F69000C2F20000039040F63921C0F6D6
:1047900000010A220192FFF779FF019A40F67C009E
:1047A000C2F20000029040F2C571C0F60001FFF7AE
:1047B0006DFF0298FFF7D4FF0398FFF7D1FF04B015
:1047C00080BD00000FB4054B10B503A9044A029840
:1047D00000F0DAF810BC5DF814FB0000B7500008D8
:1047E0000000002002E008C8121F08C1002AFAD108
:1047F00070477047002001E001C1121F002AFBD161
:10480000704700002DE9FF5F82B00021DDE9043030
:10481000020DDDF840B0034318D044F61050A2F268
:10482000FF3242431514119801281FD0A5EB0B004D
:10483000401C5FEA000A4FF000064E4FDFF8389147
:10484000B046504615D5CAF1000413E01198012472
:104850004AA3012801D16FEA0B010298119AC0E91D
:104860000031C0E9024206B0BDE8F09FCBF1000084
:10487000DFE704460021404A491842EB0450CDE9E5
:10488000001012E0E00707D032463B46404649465A
:10489000FBF77CFD8046894632463B46104619466A
:1048A000FBF774FD06460F466410002CEAD1DDE9E3
:1048B0000401DDE90023BAF1000F06DAFBF766FD1B
:1048C00042464B46FBF762FD05E0FBF7D1FD424651
:1048D0004B46FBF7CDFD04460E460022284BFBF766
:1048E0004FFE03D84FF0FF30014607E00022254B72
:1048F00020463146FBF7A3FCFBF729FE102409E014
:10490000002C0ADB0A220023FBF768FC039B3032F1
:104910001A55641E50EA0102F2D1641C039AC4F1D4
:1049200011031444119A012A03D0012208430DD126
:104930000AE0084304D000204FF0110B119072E7F9
:10494000A3EB0B056D1E0DE05B4504DD4FF000028F
:1049500005F1010504E003DA4FF00002A5F10105BD
:10496000002AECD002981199C0E90231C0E9004553
:1049700079E70000000014400000F03F3000000024
:104980000000F0430000E03F2DE9FF4F95B09B464B
:104990008946064600250FE2252877D100242746C0
:1049A000F84A0121059400E0044316F8013F203B3A
:1049B00001FA03F01042F7D130782A2811D06FF0B5
:1049C0002F033078A0F13002092A16D8059A44F056
:1049D000020402EB820203EB42021044761C0590B3
:1049E000EFE759F8042B0592002A03DA504244F409
:1049F0000054059044F00204761C30782E2816D11D
:104A000016F8010F44F004042A280DD06FF02F028D
:104A10003078A0F13003092B09D807EB870302EBAC
:104A20004303C718761CF3E759F8047B761C3078EB
:104A30006C280FD006DC4C2817D068280DD06A28C7
:104A400014D104E0742810D07A280FD10DE044F47A
:104A500000140AE044F4801401E044F44014727835
:104A6000824202D104F58014761C761C30786628C8
:104A70000BD013DC582877D009DC002875D04528E6
:104A8000F6D04628F4D047281AD19DE118E06328D3
:104A900035D0642879D0652812D195E1702873D07B
:104AA00008DC6728F1D069286FD06E280DD06F28F8
:104AB00006D1B5E073282CD0752875D0782874D02D
:104AC0005A46179990476D1C75E1C4F302500228AD
:104AD00009D003280DD0D9F8001004280DD00D609E
:104AE00009F1040967E1D9F80010EA17C1E9005299
:104AF000F6E7D9F800100D80F2E70D70F0E719F82D
:104B0000041B8DF8001000208DF80100EA460120FA
:104B100003E059F804AB4FF0FF3061074FF000019C
:104B200002D40DE008F101018846B9420FDA804550
:104B3000F8DB1AF808100029F4D108E008F10101A7
:104B400088468142FADB1AF808100029F6D1059848
:104B50005B46A0EB080721463846179A00F094FA06
:104B6000284400EB080507E04DE029E10DE01AF8C4
:104B7000010B5A4617999047B8F10108F7D25B46E6
:104B800021463846179A13E142E00A220092C4F304
:104B900002524FF0000A022A08D059F804CB032A27
:104BA0004FEAEC710AD00DE029E02AE009F1070193
:104BB00021F00702F2E802C1914609E00FFA8CFCED
:104BC0004FEAEC71042A03D14FFA8CFC4FEAEC71E6
:104BD000002907DA0A460021DCF1000C61EB020132
:104BE0002D2202E0220504D52B228DF8042001227B
:104BF00003E0E20701D02022F7E7904659E00A21BE
:104C000002E010220DE010214FF0000A00910BE0AD
:104C100010224FF0000A44F004040827009203E039
:104C200008224FF0000A0092C4F30252022A05D073
:104C300059F804CB0021032A08D009E009F1070143
:104C400021F00702F2E802C1914605E01FFA8CFC50
:104C5000042A01D10CF0FF0C4FF00008220728D5E0
:104C6000702806D0009B83F0100353EA0A0305D096
:104C70000EE040228DF80420012208E05CEA0102E7
:104C800006D030228DF804208DF8050002229046CF
:104C9000009B83F0080353EA0A030AD15CEA01028D
:104CA00001D1620705D530228DF804204FF00108AC
:104CB0007F1E582804D034A003900EA802900DE067
:104CC00036A0F9E753466046009AFBF787FA844618
:104CD0000398825C0298401E029002705CEA010018
:104CE000F0D1029806A9081A00F1200A600702D53F
:104CF00024F4803400E00127574502DDA7EB0A00C9
:104D000000E0002000EB0A01009005984144401AA1
:104D10000590E00306D45B462146179A059800F0FB
:104D2000B3F90544002706E001A85A46C05D17996B
:104D300090476D1C7F1C4745F6DBE0030CD55B46B6
:104D40002146179A059800F09FF9054404E03020A9
:104D50005A46179990476D1C0099481E00900029EB
:104D6000F5DC08E0029802995A460078491C029145
:104D7000179990476D1CBAF10001AAF1010AF1DC04
:104D800065E100000928010030313233343536370F
:104D90003839616263646566000000003031323387
:104DA0003435363738394142434445460000000027
:104DB00000F058F90544761C307800287FF4ECADFB
:104DC00019B02846BDE8F08F620700D4062709F124
:104DD000070222F0070CFCE80223E14603F000483A
:104DE0005FEA080C02D00FF2702C0DE05FEA045C61
:104DF00002D50FF2682C07E05FEAC47C02D00FF204
:104E0000602C01E0AFF2700C4FF0FF3823F000434C
:104E1000CDF850C065280CD006DC452809D04628BE
:104E20001DD047283DD13DE0662818D067287ED1A7
:104E300038E00021112F01DB112000E0781CCDE9C2
:104E4000000106A90EA8FFF7DDFCDDE90F010E9AAF
:104E500003910021009207F1010A04914DE04FF007
:104E600000400097CDE9011006A90EA8FFF7CAFC83
:104E7000DDE90F0203920E9B11990022DDF80CA0D0
:104E80000093049211B9791C00EB010AB7EB0A00F8
:104E900004D4C0F1FF3007F1010A0490AAEB070027
:104EA000019044E0012F00DA01270021112F01DDDC
:104EB000112000E03846CDE9000106A90EA8FFF751
:104EC000A1FCDDE90F010E9A0391002104910092EB
:104ED000BA4621070CD40399514500DA8A46BAF143
:104EE000010F05DD009AAAF10101515C302908D0BB
:104EF000B84202DA10F1040F06DA0121CDE90110FF
:104F000015E0AAF10101E9E7002805DC0499014454
:104F10000491AAEB000102E0411C514500DD8A46E4
:104F20000499401A401C01904FF000400290200765
:104F300004D40198504501DBCDF8048000208DF8A1
:104F40004F0002980DF14F07B0F1004F25D02B20F4
:104F50000E9002984FF0020800280CDA40420290AE
:104F60002D200E9007E00A210298FBF721F930313D
:104F7000029007F8011DB8F10001A8F10108F2DC68
:104F800002980028EFD1791E0E980870307800F052
:104F9000200040F0450007F8020D12A8C01B00F1E8
:104FA00007081498007800B1012000EB0A0101986D
:104FB00001EBE07105984144401A401E0590E00362
:104FC00006D45B462146179A059800F05DF8054423
:104FD0001498007818B15A46179990476D1CE00351
:104FE00024D55B462146179A059800F04DF80544F4
:104FF0001CE00498002807DBDDE90301884203DD9B
:105000000098405C179901E0179930205A46904764
:10501000049805F10105401C04900198401E019080
:1050200004D12E205A46179990476D1CBAF1000101
:10503000AAF1010ADDDC05E017F8010B5A461799C1
:1050400090476D1CB8F10001A8F10108F4DC5B4643
:105050002146179A0598ABE62D0000002B000000B2
:10506000200000002DE9F041044600251E461746A9
:10507000880404D405E039462020B0476D1C641E26
:10508000F9D52846BDE8F0812DE9F0410446002518
:105090001E469046C80301D5302700E0202788042B
:1050A00004D505E041463846B0476D1C641EF9D56D
:1050B0002846BDE8F08138B504468DF80000694601
:1050C0000320ABBE204638BD0000000000000000F9
:1050D000010203040607080900000000010203049E
:1050E00002030405060708090A0B0C0D0E0F101029
:1050F000010248656C6C6F20576F726C6421007000
:10510000726F746F636F6C5F616E616C79736973DA
:105110003A20646174612073697A65206572726FE8
:105120007221000048510008000000201004000017
:10513000F00600088052000810040020200A000039
:10514000F44700080000000022000113127A050352
:1051500010803F0413004003110412800412C00C9D
:10516000100600410000200412500412700412982E
:105170000412B00412C80412E81C10060442000015
:105180001804122804123C04125004126404127809
:1051900004128804129204129E0412AA0412B60485
:1051A00012C20412CE0412DA0412E60412F204123D
:1051B000FE441006064300000C04121204121804E8
:1051C000121E04122404122A04123004123604128D
:1051D0003B04124104124604124B041250041255AF
:1051E00004125904125E0412620412660412690465
:1051F000126C0412700412720412750412770412F5
:105200007904127B04127C04127D0402117E045284
:105210007D20527B30527740527250526C60526601
:1052200070525E80525590524BA05241B05236C0DF
:10523000522AD0521EE05212F021F847004308567D
:10524000E61856CE2856B638569E485688585664A4
:1052500068563C782580258856E89856B0A8567040
:10526000B825C025C856C0D825E025E809FF0009A3
:10527000FB001E01070400050010000000000000F4
:0400000508000131BD
:00000001FF
